:100000000C9446000C9465000C9465000C946500FB
:100010000C9465000C9465000C9465000C946500CC
:100020000C9465000C9465000C9465000C946500BC
:100030000C9465000C9459010C9465000C946500B7
:100040000C9465000C9465000C9465000C9465009C
:100050000C9465000C9465000C9465000C9465008C
:100060000C9465000C9465000C9465000C9465007C
:100070000C9465000C9465000C9465000C9465006C
:100080000C9465000C9465000C94650011241FBE4F
:10009000CFEFD0E4DEBFCDBF11E0A0E0B1E0ECE8EF
:1000A000F8E000E00BBF02C007900D92AC31B10741
:1000B000D9F721E0ACE1B1E001C01D92AD34B20747
:1000C000E1F70E949C020C9444040C940000CF932E
:1000D000DF9300D01F92CDB7DEB789837B836A831D
:1000E00089818A3031F48A819B81BC018DE00E9434
:1000F000670080EC90E0FC018081882F90E08072A6
:100100009927892BB1F386EC90E02981FC012083AB
:1001100080E090E00F900F900F90DF91CF910895C5
:10012000CF93DF93CDB7DEB72C970FB6F894DEBF31
:100130000FBECDBF6D837E838F83988729873A87D3
:100140004B875C878D819E81AF81B88529853A85F3
:100150004B855C85BC01CD010E942204DC01CB01F2
:1001600089839A83AB83BC8389819A81AB81BC816B
:10017000892B8A2B8B2B29F489859A85AB85BC85A5
:1001800011C089859A85AB85BC858D839E83AF839D
:10019000B88789819A81AB81BC8189879A87AB872F
:1001A000BC87D0CFBC01CD012C960FB6F894DEBF32
:1001B0000FBECDBFDF91CF910895CF93DF9300D0D5
:1001C00000D0CDB7DEB769837A838B839C83898126
:1001D0009A81AB81BC8180930E0190930F01A09313
:1001E0001001B093110180910E0190910F01A09127
:1001F0001001B091110180931D0190931E01A093F5
:100200001F01B093200100000F900F900F900F90EE
:10021000DF91CF910895CF93DF93CDB7DEB781E81B
:1002200090E02BE0FC01208388E890E02DE730E0AF
:10023000FC01318320838FE690E022E0FC012083E3
:1002400084E890E0FC011182108280910E0190916F
:100250000F01A0911001B091110180931D019093A5
:100260001E01A0931F01B09320018FE590E02FE5C0
:1002700030E0F90120812068FC0120830000DF913B
:10028000CF910895CF93DF93CDB7DEB781E890E0AB
:10029000FC0110820000DF91CF910895CF93DF938E
:1002A000CDB7DEB781E080931C010000DF91CF91D4
:1002B00008951F920F9200905F000F9211240090FA
:1002C0005B000F922F933F934F935F936F937F93B6
:1002D0008F939F93AF93BF93EF93FF93CF93DF934E
:1002E000CDB7DEB780911D0190911E01A0911F0135
:1002F000B09120010197A109B10980931D0190934C
:100300001E01A0931F01B093200180911D019091C7
:100310001E01A0911F01B0912001892B8A2B8B2BEC
:1003200091F40E944E0180910E0190910F01A091D5
:100330001001B091110180931D0190931E01A093B3
:100340001F01B09320010000DF91CF91FF91EF9149
:10035000BF91AF919F918F917F916F915F914F91DD
:100360003F912F910F9000925B000F9000925F00E1
:100370000F901F901895CF93DF9300D0CDB7DEB7C5
:100380009A83898389819A81009719F0019751F0A6
:1003900010C0809112018E3F89F481E090E09A8331
:1003A00089830CC0809112018F3E51F41A82198208
:1003B00007C081E090E09A83898303C0000001C0F8
:1003C000000089819A81009719F0019741F011C0CE
:1003D0008091120186958068809312010AC08091F5
:1003E0001201882F90E0880F991F8160809312017D
:1003F000000089819A810F900F90DF91CF9108952D
:10040000CF93DF9300D0CDB7DEB79A8389838981FC
:100410009A81009719F0019751F010C08091130153
:10042000803889F481E090E09A8389830CC08091C0
:100430001301813051F41A82198207C081E090E0E3
:100440009A83898303C0000001C0000089819A81DA
:10045000009719F0019739F00CC080911301880FB3
:100460008093130106C08091130186958093130138
:10047000000089819A810F900F90DF91CF910895AC
:10048000CF93DF9300D01F92CDB7DEB79B838A83D3
:1004900089E290E0FC018081898383E290E0FC01A5
:1004A0008081882F90E081709927892B51F489E20F
:1004B00090E0FC0180818A3F20F4898186958068E4
:1004C000898383E290E0FC018081882F90E0827034
:1004D0009927892B89F489E290E0FC018081833F90
:1004E00058F0998180E8892789838981882F90E055
:1004F000880F991F816089838BE290E02981FC013C
:10050000208388E290E020E4FC0120838A819B81A3
:100510000F900F900F90DF91CF910895CF93DF93BD
:1005200000D0CDB7DEB79A83898389819A810F90F5
:100530000F90DF91CF9108950F931F93CF93DF9387
:10054000CDB7DEB72C970FB6F894DEBF0FBECDBF88
:1005500084E290E0FC01108285E290E02FEFFC0144
:10056000208387E290E02FEFFC01208388E290E077
:10057000FC0110828AE290E02FEFFC0120838BE2E5
:1005800090E0FC01108288E0E4E1F1E0DE011596E4
:1005900001900D928A95E1F784E090E09C838B8333
:1005A00081E08093210184E690E0A0E0B0E08093B8
:1005B000220190932301A0932401B09325018091FF
:1005C000220190912301A0912401B09125018093F3
:1005D000260190932701A0932801B09329018BEB6A
:1005E00091E090932B0180932A0181E080932C016C
:1005F00084E690E0A0E0B0E080932D0190932E017E
:10060000A0932F01B093300180912D0190912E0184
:10061000A0912F01B091300180933101909332016C
:10062000A0933301B093340180E092E090933601BF
:10063000809335011092370182E390E0A0E0B0E0B2
:100640008093380190933901A0933A01B0933B0114
:100650008091380190913901A0913A01B0913B010C
:1006600080933C0190933D01A0933E01B0933F01E4
:1006700080E492E090934101809340011092420106
:1006800082E390E0A0E0B0E08093430190934401C6
:10069000A0934501B093460180914301909144019C
:1006A000A0914501B0914601809347019093480184
:1006B000A0934901B0934A018EE892E090934C01D7
:1006C00080934B0162E370E080E090E00E94DD00E7
:1006D0000E940B0188E290E020E4FC0120838BE281
:1006E00090E029EFFC0120831A8219829BC0898146
:1006F0009A81880F991F9E012F5F3F4F820F931F92
:100700000496FC0180819181FC012581368147811D
:10071000508589819A81880F991FBE016F5F7F4F35
:10072000860F971F0496FC0180819181FC018181D5
:100730009281A381B481281739074A075B0709F022
:1007400045C089819A81880F991F9E012F5F3F4F75
:10075000820F931F0496FC010081118189819A8187
:10076000880F991F9E012F5F3F4F820F931F0496A2
:10077000FC0180819181FC012185328589819A81EA
:10078000880F991FAE014F5F5F4F840F951F04962E
:10079000FC0180819181FC018081082E000C990B65
:1007A000F9010995F801808389819A81880F991F41
:1007B0009E012F5F3F4F820F931F0496FC018081A3
:1007C0009181FC01158216821782108689819A8197
:1007D000880F991F9E012F5F3F4F820F931F049632
:1007E000FC012081318189819A81880F991FAE0196
:1007F0004F5F5F4F840F951F0496FC0180819181AC
:10080000FC0185819681A781B085C296A11DB11D8D
:10081000F90185839683A783B08789819A810196A0
:100820009A83898329813A818B819C812817390792
:1008300008F45DCF000080911C018823E1F3109241
:100840001C0152CFA1E21A2EAA1BBB1BFD010DC039
:10085000AA1FBB1FEE1FFF1FA217B307E407F50770
:1008600020F0A21BB30BE40BF50B661F771F881F4C
:10087000991F1A9469F760957095809590959B01E2
:0C088000AC01BD01CF010895F894FFCF3A
:10088C0000000002000000006700000000000100F2
:0C089C000000FE8021012C013701420108
:00000001FF
