:100000000C944E000C946D000C946D000C946D00DB
:100010000C946D000C946D000C946D000C946D00AC
:100020000C946D000C946D000C946D000C946D009C
:100030000C946D000C9461010C946D000C946D0097
:100040000C946D000C946D000C946D000C946D007C
:100050000C946D000C946D000C946D000C946D006C
:100060000C946D000C946D000C946D000C946D005C
:100070000C946D000C946D000C946D000C946D004C
:100080000C946D000C946D000C946D00BA06BF06C4
:10009000D906DE06F80611071607320711241FBE1F
:1000A000CFEFD0E4DEBFCDBF11E0A0E0B1E0E4EAE5
:1000B000F5E100E00BBF02C007900D92A033B1073D
:1000C000D9F721E0A0E3B1E001C01D92A23AB20746
:1000D000E1F70E94A7070C94D00A0C940000CF937C
:1000E000DF9300D01F92CDB7DEB789837B836A830D
:1000F00089818A3031F48A819B81BC018DE00E9424
:100100006F0080EC90E0FC018081882F90E080728D
:100110009927892BB1F386EC90E02981FC0120839B
:1001200080E090E00F900F900F90DF91CF910895B5
:10013000CF93DF93CDB7DEB72C970FB6F894DEBF21
:100140000FBECDBF6D837E838F83988729873A87C3
:100150004B875C878D819E81AF81B88529853A85E3
:100160004B855C85BC01CD010E940A0ADC01CB01F4
:1001700089839A83AB83BC8389819A81AB81BC815B
:10018000892B8A2B8B2B29F489859A85AB85BC8595
:1001900011C089859A85AB85BC858D839E83AF838D
:1001A000B88789819A81AB81BC8189879A87AB871F
:1001B000BC87D0CFBC01CD012C960FB6F894DEBF22
:1001C0000FBECDBFDF91CF910895CF93DF9300D0C5
:1001D00000D0CDB7DEB769837A838B839C83898116
:1001E0009A81AB81BC8180930E0190930F01A09303
:1001F0001001B093110180910E0190910F01A09117
:100200001001B09111018093310190933201A093BC
:100210003301B093340100000F900F900F900F90B6
:10022000DF91CF910895CF93DF93CDB7DEB781E80B
:1002300090E02BE0FC01208388E890E02DE730E09F
:10024000FC01318320838FE690E022E0FC012083D3
:1002500084E890E0FC011182108280910E0190915F
:100260000F01A0911001B091110180933101909381
:100270003201A0933301B09334018FE590E02FE574
:1002800030E0F90120812068FC0120830000DF912B
:10029000CF910895CF93DF93CDB7DEB781E890E09B
:1002A000FC0110820000DF91CF910895CF93DF937E
:1002B000CDB7DEB781E0809330010000DF91CF91B0
:1002C00008951F920F9200905F000F9211240090EA
:1002D0005B000F922F933F934F935F936F937F93A6
:1002E0008F939F93AF93BF93EF93FF93CF93DF933E
:1002F000CDB7DEB78091310190913201A0913301E9
:10030000B09134010197A109B10980933101909313
:100310003201A0933301B093340180913101909167
:100320003201A0913301B0913401892B8A2B8B2BA0
:1003300091F40E94560180910E0190910F01A091BD
:100340001001B09111018093310190933201A0937B
:100350003301B09334010000DF91CF91FF91EF9111
:10036000BF91AF919F918F917F916F915F914F91CD
:100370003F912F910F9000925B000F9000925F00D1
:100380000F901F901895CF93DF9300D01F92CDB799
:10039000DEB789836A834B838B81882371F08A81DE
:1003A000282F30E081E090E002C0880F991F2A9545
:1003B000E2F7982F8981892B0EC08A81282F30E09F
:1003C00081E090E002C0880F991F2A95E2F7982FEC
:1003D0009095898189230F900F900F90DF91CF9195
:1003E0000895CF93DF9300D0CDB7DEB789836A83BA
:1003F0008A81282F30E081E090E002C0880F991FA9
:100400002A95E2F7982F898189230F900F90DF9129
:10041000CF9108950F931F93CF93DF93CDB7DEB79E
:1004200002E210E040E064E08FEF0E94C301F801B7
:100430008083000080E290E0FC018081809560E094
:100440000E94F101882311F081E3D3C080E290E0A3
:10045000FC018081809561E00E94F101882311F008
:1004600084E3C7C080E290E0FC018081809562E077
:100470000E94F101882311F087E3BBC080E290E085
:10048000FC018081809563E00E94F101882311F0D6
:100490008AE2AFC002E210E040E065E08FEF0E9428
:1004A000C301F8018083000080E290E0FC018081BC
:1004B000809560E00E94F101882311F082E399C0E9
:1004C00080E290E0FC018081809561E00E94F10172
:1004D000882311F085E38DC080E290E0FC018081EB
:1004E000809562E00E94F101882311F088E381C0C9
:1004F00080E290E0FC018081809563E00E94F10140
:10050000882311F080E375C002E210E040E066E06D
:100510008FEF0E94C301F8018083000080E290E029
:10052000FC018081809560E00E94F101882311F038
:1005300083E35FC080E290E0FC018081809561E010
:100540000E94F101882311F086E353C080E290E01D
:10055000FC018081809562E00E94F101882311F006
:1005600089E347C080E290E0FC018081809563E0F0
:100570000E94F101882311F083E23BC002E210E007
:1005800040E067E08FEF0E94C301F8018083000024
:1005900080E290E0FC018081809560E00E94F101A2
:1005A000882311F081E425C080E290E0FC01808185
:1005B000809561E00E94F101882311F082E419C066
:1005C00080E290E0FC018081809562E00E94F10170
:1005D000882311F083E40DC080E290E0FC0180816B
:1005E000809563E00E94F101882311F084E401C04A
:1005F00080E0DF91CF911F910F910895CF93DF930A
:10060000CDB7DEB70E94800ADF91CF910895CF93D6
:10061000DF9300D01F92CDB7DEB79B838A83809192
:100620001201809589838A819B818130910591F0A7
:1006300082309105D9F1892B09F06FC089E290E0F1
:10064000FC01808188230CF463C082E090E09B83EE
:100650008A835EC0809113018034F1F48091170188
:10066000982F9695898189238823B1F082E090E0C4
:100670009B838A8380911401909115018037974163
:10068000A4F08091140190911501885E934090939D
:1006900015018093140109C0809112018E3FD1F59C
:1006A00082E090E09B838A8335C034C0809113013F
:1006B000803421F580911701882F90E09C01220F52
:1006C000331F8981882F90E082239323892BB1F0F7
:1006D00081E090E09B838A838091140190911501C1
:1006E00080379741A4F080911401909115018456B0
:1006F0009109909315018093140109C08091120112
:100700008F3E51F481E090E09B838A8305C004C052
:10071000000003C0000001C000008A819B8181307D
:10072000910519F0029741F011C080911201869550
:100730008068809312010AC080911201882F90E096
:10074000880F991F81608093120100008A819B812C
:100750000F900F900F90DF91CF910895CF93DF937B
:10076000CDB7DEB727970FB6F894DEBF0FBECDBF6B
:100770009F838E83809117018095898380911801D2
:1007800080958A838091120180958B831C821D82C3
:100790000DC099818B81892381709C81890F8C8305
:1007A0008981869589838B8186958B83898188232E
:1007B00019F08B81882369F78091120180958B83D2
:1007C0000DC09A818B81892381709D81890F8D83D2
:1007D0008A8186958A838B8186958B838A818823FB
:1007E00019F08B81882369F78E819F818130910573
:1007F00091F082309105B1F1892B09F05AC089E25C
:1008000090E0FC01808188230CF458C082E090E0E5
:100810009F838E8353C0809113018034C9F48C81EF
:100820008130B1F482E090E09F838E838091140147
:100830009091150181349F41A4F48091140190910D
:1008400015018C599F4F909315018093140109C095
:10085000809113018038A1F582E090E09F838E8320
:100860002FC02EC0809113018230C9F48D81813058
:10087000B1F481E090E09F838E8380911401909188
:10088000150181349F41A4F48091140190911501C8
:100890008C599F4F909315018093140109C080914A
:1008A0001301813079F481E090E09F838E830AC048
:1008B00009C082E090E09F838E8305C0000003C0E2
:1008C000000001C000008E819F818130910519F0E8
:1008D000029739F00CC080911301880F80931301A7
:1008E00006C08091130186958093130100008E81CC
:1008F0009F8127960FB6F894DEBF0FBECDBFDF9164
:10090000CF910895CF93DF9300D01F92CDB7DEB77C
:100910009B838A838A819B818230910581F1833018
:1009200091052CF4009749F0019721F14CC08330D8
:10093000910591F10497A9F146C083E290E0FC0192
:100940008081882F90E081709927892B21F481E0A4
:1009500090E09B838A8383E290E0FC018081882F72
:1009600090E082709927892B49F583E090E09B8382
:100970008A8324C082E090E09B838A8324C083E240
:1009800090E0FC018081882F90E081709927892B6D
:10099000B9F01B821A8214C084E090E09B838A83A2
:1009A00012C083E290E0FC018081882F90E0827089
:1009B0009927892B39F01B821A8204C0000003C0DA
:1009C000000001C000008A819B818130910519F0EF
:1009D000039761F021C080911701823FD8F4809184
:1009E0001701869580688093170114C080911701C4
:1009F000813F90F0809117018983998180E8892750
:100A000089838981882F90E0880F991F8160809366
:100A1000170102C0000001C000008A819B810F9075
:100A20000F900F90DF91CF910895CF93DF9300D077
:100A300000D0CDB7DEB79C838B830E940A028983E6
:100A40008091190190911A01892B09F063C08B8163
:100A50009C818230910511F1833091052CF400972F
:100A600049F00197B1F02FC083309105E9F0049768
:100A700001F129C08981813321F481E090E09C83D8
:100A80008B8389818233D9F483E090E09C838B83CC
:100A900016C082E090E09C838B8316C089818133ED
:100AA00081F01C821B820DC084E090E09C838B83CC
:100AB0000BC08981823339F01C821B8204C0000084
:100AC00003C0000001C000008B819C818130910532
:100AD00019F0039761F01DC080911801823FB8F4AE
:100AE00080911801869580688093180110C08091CC
:100AF0001801813F70F0809118018A838A81882FC4
:100B000090E0880F991F81608093180102C0000057
:100B100001C000008B810F900F900F900F90DF911C
:100B2000CF910895CF93DF9300D0CDB7DEB79A83EE
:100B3000898389819A818130910589F0823091057C
:100B400099F0892B09F01CC089E290E0FC018081BA
:100B500088239CF081E090E09A8389830EC082E034
:100B600090E09A8389830CC089E290E0FC01808147
:100B700088232CF41A82198202C0000001C00000F0
:100B800089819A81019709F01CC085E290E023E0F9
:100B9000FC01208310921601109235018EEF809394
:100BA000120180E18093130181EF8093170181EF9F
:100BB0008093180188E59BE19093150180931401BF
:100BC000000089819A810F900F90DF91CF91089555
:100BD000CF93DF9300D000D01F92CDB7DEB79D83B7
:100BE0008C838091190190911A01019709F049C0F5
:100BF0008C819D81892B09F005C081E090E09D8367
:100C00008C8300008C819D81019709F03AC00E947D
:100C1000FE0281709078992324F401978E6F9F6F64
:100C200001969A83898380911301883071F48981B8
:100C30009A81892B51F480911801823F30F4809180
:100C4000180186958068809318018091130188307F
:100C5000B9F489819A81019799F480911801813FB3
:100C600078F0809118018B839B8180E889278B83A2
:100C70008B81882F90E0880F991F816080931801E5
:100C80000000809113018038B1F4809135018730E4
:100C900049F4109216011092350185E290E023E0AC
:100CA000FC01208380913501882F90E0880F991FE7
:100CB000816080933501809113018130B1F480917E
:100CC0001601873049F4109216011092350185E221
:100CD00090E023E0FC01208380911601882F90E0B2
:100CE000880F991F81608093160185E290E0209122
:100CF0003501222F30E0220F331F22953295307FAD
:100D00003227207F3227422F20911601222F30E0F8
:100D1000220F331F220F331F422B25E230E0F9014F
:100D20002081242BFC0120838C819D810F900F90CA
:100D30000F900F900F90DF91CF910895CF93DF9395
:100D400000D0CDB7DEB79A83898389819A81092E35
:100D5000000CAA0BBB0B40E050E027E030E0841B06
:100D6000950B2817390708F47AC08A5B9F4FFC015E
:100D70000C942C0A81E090E09A8389837CC089E2FC
:100D800090E0FC018081882F90E080749927892B66
:100D900021F485E090E09A83898389E290E0FC0168
:100DA000808188230CF460C087E090E09A83898377
:100DB0005BC083E090E09A8389835DC089E290E024
:100DC000FC018081882F90E080749927892B21F085
:100DD00081E090E09A83898389E290E0FC01808140
:100DE00088230CF443C087E090E09A8389833EC057
:100DF00089E290E0FC018081882F90E0807499273F
:100E0000892B21F482E090E09A83898389E290E043
:100E1000FC018081882364F187E090E09A838983D4
:100E200027C086E090E09A83898325C089E290E01C
:100E3000FC018081882F90E080749927892B21F014
:100E400084E090E09A83898389E290E0FC018081CC
:100E5000882384F087E090E09A8389830BC01A820C
:100E6000198209C0000007C0000005C0000003C0CF
:100E7000000001C0000089819A818230910531F023
:100E80008530910569F0892B09F012C081E08093CB
:100E9000160181E090E090931A018093190108C037
:100EA00083E08093160110921A011092190100003C
:100EB00089819A810F900F90DF91CF910895CF9300
:100EC000DF9300D0CDB7DEB79A83898389819A8179
:100ED00081309105B1F08230910519F1892B09F02B
:100EE0002FC08BE290E020911701FC01208388E263
:100EF00090E020E8FC01208381E090E09A838983E0
:100F00001FC08BE290E020911801FC01208388E251
:100F100090E021E0FC01208382E090E09A838983C5
:100F20000FC08BE290E020911201FC01208388E247
:100F300090E020911301FC0120831A8219820000A5
:100F400089819A810F900F90DF91CF9108950F932F
:100F50001F93CF93DF93CDB7DEB764970FB6F894A6
:100F6000DEBF0FBECDBF81E290E020EFFC01208309
:100F700082E290E02FE0FC01208384E290E02CEFFD
:100F8000FC01208385E290E023E0FC01208387E2DE
:100F900090E02FEFFC01208388E290E0FC011082BA
:100FA0008AE290E02FE7FC0120838BE290E020E8CA
:100FB000FC01208380E090E00E94F709DC01CB0176
:100FC0000E94840A80E1EFE1F1E0DE0115960190D4
:100FD0000D928A95E1F788E090E09C838B831092D4
:100FE00036018091140190911501092E000CAA0B75
:100FF000BB0B8093370190933801A0933901B093D4
:101000003A018091370190913801A0913901B09156
:101010003A0180933B0190933C01A0933D01B09332
:101020003E0187E093E09093400180933F0110924E
:1010300041018091140190911501092E000CAA0B19
:10104000BB0B8093420190934301A0934401B09362
:1010500045018091420190914301A0914401B091DA
:1010600045018093460190934701A0934801B093B6
:1010700049018EEA93E090934B0180934A011092CC
:101080004C0182E390E0A0E0B0E080934D019093AA
:101090004E01A0934F01B093500180914D0190916A
:1010A0004E01A0914F01B091500180935101909356
:1010B0005201A0935301B09354018FE597E09093B0
:1010C0005601809355011092570184E690E0A0E00C
:1010D000B0E08093580190935901A0935A01B093C6
:1010E0005B018091580190915901A0915A01B091F2
:1010F0005B0180935C0190935D01A0935E01B093CE
:101100005F0182E894E09093610180936001109206
:1011100062018091140190911501092E000CAA0B17
:10112000BB0B8093630190936401A0936501B0931E
:1011300066018091630190916401A0916501B09175
:1011400066018093670190936801A0936901B09351
:101150006A0188EE95E090936C0180936B01109288
:101160006D018091140190911501092E000CAA0BBC
:10117000BB0B80936E0190936F01A0937001B093AD
:1011800071018091630190916401A0916501B0911A
:1011900066018093720190937301A0937401B093E0
:1011A000750182E995E09093770180937601109222
:1011B000780184E690E0A0E0B0E08093790190931C
:1011C0007A01A0937B01B0937C0180917901909189
:1011D0007A01A0917B01B0917C0180937D01909375
:1011E0007E01A0937F01B093800185E195E090930B
:1011F0008201809381011092830182E390E0A0E05C
:10120000B0E08093840190938501A0938601B09310
:1012100087018091840190918501A0918601B09110
:1012200087018093880190938901A0938A01B093EC
:101230008B018EE996E090938D0180938C0161E0A3
:1012400070E080E090E00E94E5000E9413011A82A5
:101250001982BDC089819A81880F991F9E012F5FD5
:101260003F4F820F931F0496FC0180819181FC0106
:10127000258136814781508589819A81880F991F00
:10128000BE016F5F7F4F860F971F0496FC01808120
:101290009181FC0181819281A381B4812817390752
:1012A0004A075B0709F067C089819A81880F991FF7
:1012B0009E012F5F3F4F820F931F0496FC01008118
:1012C000118189819A81880F991F9E012F5F3F4F5D
:1012D000820F931F0496FC0180819181FC0121857E
:1012E000328589819A81880F991FAE014F5F5F4FC8
:1012F000840F951F0496FC0180819181FC018081FF
:10130000082E000C990BF9010995F8018083898159
:101310009A81880F991F9E012F5F3F4F820F931F65
:101320000496FC0180819181FC011582168217824E
:10133000108689819A81892B21F089819A81019770
:10134000D1F489819A81880F991F9E012F5F3F4FA9
:10135000820F931F0496FC0120813181809114013A
:1013600090911501092E000CAA0BBB0BF90181838A
:101370009283A383B48389819A81880F991F9E01E8
:101380002F5F3F4F820F931F0496FC012081318114
:1013900089819A81880F991FAE014F5F5F4F840F3B
:1013A000951F0496FC0180819181FC0185819681C5
:1013B000A781B085C296A11DB11DF90185839683D1
:1013C000A783B08789819A8101969A83898329812D
:1013D0003A818B819C812817390708F43BCF0000A4
:1013E000809130018823E1F31092300130CFFC016D
:1013F0000FB6F89460919E0170919F018091A001B9
:101400009091A1010FBE309721F060837183828398
:1014100093830895A1E21A2EAA1BBB1BFD010DC0E8
:10142000AA1FBB1FEE1FFF1FA217B307E407F50794
:1014300020F0A21BB30BE40BF50B661F771F881F70
:10144000991F1A9469F760957095809590959B0106
:10145000AC01BD01CF010895EE0FFF1F0024001C59
:101460000BBE0790F691E02D09948F929F92AF9258
:10147000BF92CF92DF92EF92FF92CF93DF93EC0176
:10148000688179818A819B8161157105810591054A
:1014900021F464E279ED8BE597E02DE133EF41E053
:1014A00050E00E948F0A49015A019B01AC01A7EA52
:1014B000B1E40E94AE0A6B017C01ACEEB4EFA50171
:1014C00094010E94BC0ADC01CB018C0D9D1DAE1D58
:1014D000BF1DB7FF03C00197A109B0488883998356
:1014E000AA83BB839F77DF91CF91FF90EF90DF902E
:1014F000CF90BF90AF909F908F9008950C94350A35
:101500008BE191E00C94350AA0E0B0E080931B01E0
:1015100090931C01A0931D01B0931E010895052E08
:1015200097FB1EF400940E94A60A57FD07D00E9464
:101530000A0A07FC03D04EF40C94A60A5095409575
:10154000309521953F4F4F4F5F4F0895909580956F
:10155000709561957F4F8F4F9F4F08950E94C10AEC
:10156000A59F900DB49F900DA49F800D911D1124F7
:101570000895B7FF0C94AE0A0E94AE0A821B930B2B
:101580000895A29FB001B39FC001A39F700D811D5C
:101590001124911DB29F700D811D1124911D08957C
:0415A000F894FFCFED
:1015A40000000002000000006F00000000000100C5
:1015B4000000FE10581B01F1F1010001000000368B
:1015C4000141014C01570162016D01780183010061
:00000001FF
