:100000000C9446000C9465000C9465000C946500FB
:100010000C9465000C9465000C9465000C946500CC
:100020000C9465000C9465000C9465000C946500BC
:100030000C9465000C9459010C9465000C946500B7
:100040000C9465000C9465000C9465000C9465009C
:100050000C9465000C9465000C9465000C9465008C
:100060000C9465000C9465000C9465000C9465007C
:100070000C9465000C9465000C9465000C9465006C
:100080000C9465000C9465000C94650011241FBE4F
:10009000CFEFD0E4DEBFCDBF11E0A0E0B1E0E6E2FB
:1000A000F8E000E00BBF02C007900D92AA31B10743
:1000B000D9F721E0AAE1B1E001C01D92A034B20756
:1000C000E1F70E948D020C9411040C940000CF9370
:1000D000DF9300D01F92CDB7DEB789837B836A831D
:1000E00089818A3031F48A819B81BC018DE00E9434
:1000F000670080EC90E0FC018081882F90E08072A6
:100100009927892BB1F386EC90E02981FC012083AB
:1001100080E090E00F900F900F90DF91CF910895C5
:10012000CF93DF93CDB7DEB72C970FB6F894DEBF31
:100130000FBECDBF6D837E838F83988729873A87D3
:100140004B875C878D819E81AF81B88529853A85F3
:100150004B855C85BC01CD010E94EF03DC01CB0126
:1001600089839A83AB83BC8389819A81AB81BC816B
:10017000892B8A2B8B2B29F489859A85AB85BC85A5
:1001800011C089859A85AB85BC858D839E83AF839D
:10019000B88789819A81AB81BC8189879A87AB872F
:1001A000BC87D0CFBC01CD012C960FB6F894DEBF32
:1001B0000FBECDBFDF91CF910895CF93DF9300D0D5
:1001C00000D0CDB7DEB769837A838B839C83898126
:1001D0009A81AB81BC8180930E0190930F01A09313
:1001E0001001B093110180910E0190910F01A09127
:1001F0001001B091110180931B0190931C01A093F9
:100200001D01B0931E0100000F900F900F900F90F2
:10021000DF91CF910895CF93DF93CDB7DEB781E81B
:1002200090E02BE0FC01208388E890E02DE730E0AF
:10023000FC01318320838FE690E022E0FC012083E3
:1002400084E890E0FC011182108280910E0190916F
:100250000F01A0911001B091110180931B019093A7
:100260001C01A0931D01B0931E018FE590E02FE5C6
:1002700030E0F90120812068FC0120830000DF913B
:10028000CF910895CF93DF93CDB7DEB781E890E0AB
:10029000FC0110820000DF91CF910895CF93DF938E
:1002A000CDB7DEB781E080931A010000DF91CF91D6
:1002B00008951F920F9200905F000F9211240090FA
:1002C0005B000F922F933F934F935F936F937F93B6
:1002D0008F939F93AF93BF93EF93FF93CF93DF934E
:1002E000CDB7DEB780911B0190911C01A0911D013B
:1002F000B0911E010197A109B10980931B01909350
:100300001C01A0931D01B0931E0180911B019091CF
:100310001C01A0911D01B0911E01892B8A2B8B2BF2
:1003200091F40E944E0180910E0190910F01A091D5
:100330001001B091110180931B0190931C01A093B7
:100340001D01B0931E010000DF91CF91FF91EF914D
:10035000BF91AF919F918F917F916F915F914F91DD
:100360003F912F910F9000925B000F9000925F00E1
:100370000F901F901895CF93DF9300D0CDB7DEB7C5
:100380009A83898389819A81009719F0019751F0A6
:1003900010C0809112018E3F89F481E090E09A8331
:1003A00089830CC0809112018F3E51F41A82198208
:1003B00007C081E090E09A83898303C0000001C0F8
:1003C000000089819A81009719F0019741F011C0CE
:1003D0008091120186958068809312010AC08091F5
:1003E0001201882F90E0880F991F8160809312017D
:1003F000000089819A810F900F90DF91CF9108952D
:10040000CF93DF9300D0CDB7DEB79A8389838981FC
:100410009A81009719F0019751F010C08091130153
:10042000803889F481E090E09A8389830CC08091C0
:100430001301813051F41A82198207C081E090E0E3
:100440009A83898303C0000001C0000089819A81DA
:10045000009719F0019739F00CC080911301880FB3
:100460008093130106C08091130186958093130138
:10047000000089819A810F900F90DF91CF910895AC
:10048000CF93DF9300D01F92CDB7DEB79B838A83D3
:1004900083E290E0FC018081882F90E081709927B1
:1004A000892B81F489E290E0FC0180818A3F50F43D
:1004B0008BE290E02BE230E0F90120812695206864
:1004C000FC01208383E290E0FC018081882F90E092
:1004D00082709927892BC9F489E290E0FC01808120
:1004E000833F98F089E290E0FC01808189839981C3
:1004F00080E8892789838BE290E02981222F30E0F0
:10050000220F331F2160FC0120838A819B810F9081
:100510000F900F90DF91CF9108950F931F93CF937A
:10052000DF93CDB7DEB72A970FB6F894DEBF0FBEC4
:10053000CDBF84E290E0FC01108285E290E02FEFD5
:10054000FC01208387E290E02FEFFC01208388E20A
:1005500090E0FC0110828AE290E02FEFFC01208302
:100560008BE290E0FC01108286E0E4E1F1E0DE0144
:10057000159601900D928A95E1F783E090E09C83B7
:100580008B8381E080931F0184E690E0A0E0B0E0DF
:100590008093200190932101A0932201B093230125
:1005A0008091200190912101A0912201B09123011D
:1005B0008093240190932501A0932601B0932701F5
:1005C0008BEB91E0909329018093280181E0809347
:1005D0002A0184E690E0A0E0B0E080932B019093A4
:1005E0002C01A0932D01B0932E0180912B019091AD
:1005F0002C01A0912D01B0912E0180932F01909399
:100600003001A0933101B093320180E092E09093E9
:100610003401809333011092350182E390E0A0E031
:10062000B0E08093360190933701A0933801B093E6
:1006300039018091360190913701A0913801B09134
:10064000390180933A0190933B01A0933C01B09310
:100650003D0180E492E090933F0180933E0162E38C
:1006600070E080E090E00E94DD000E940B0188E2D3
:1006700090E020E4FC0120838BE290E029EFFC0174
:1006800020831A8219829BC089819A81880F991FC1
:100690009E012F5F3F4F820F931F0496FC018081C4
:1006A0009181FC01258136814781508589819A811C
:1006B000880F991FBE016F5F7F4F860F971F0496AB
:1006C000FC0180819181FC0181819281A381B481AF
:1006D000281739074A075B0709F045C089819A81C5
:1006E000880F991F9E012F5F3F4F820F931F049623
:1006F000FC010081118189819A81880F991F9E01D7
:100700002F5F3F4F820F931F0496FC0180819181E0
:10071000FC012185328589819A81880F991FAE015C
:100720004F5F5F4F840F951F0496FC01808191817C
:10073000FC018081082E000C990BF9010995F80144
:10074000808389819A81880F991F9E012F5F3F4F77
:10075000820F931F0496FC0180819181FC01158218
:1007600016821782108689819A81880F991F9E01AF
:100770002F5F3F4F820F931F0496FC012081318130
:1007800089819A81880F991FAE014F5F5F4F840F57
:10079000951F0496FC0180819181FC0185819681E1
:1007A000A781B085C296A11DB11DF90185839683ED
:1007B000A783B08789819A8101969A838983298149
:1007C0003A818B819C812817390708F45DCF00009E
:1007D00080911A018823E1F310921A0152CFA1E20D
:1007E0001A2EAA1BBB1BFD010DC0AA1FBB1FEE1FAB
:1007F000FF1FA217B307E407F50720F0A21BB30BF6
:10080000E40BF50B661F771F881F991F1A9469F771
:1008100060957095809590959B01AC01BD01CF01CD
:060820000895F894FFCFDB
:100826000000000200000000670000000000010058
:0A0836000000FE801F012A013501B9
:00000001FF
