:100000000C947B000C949A000C949A000C949A0027
:100010000C949A000C949A000C949A000C949A00F8
:100020000C949A000C949A000C949A000C949A00E8
:100030000C949A000C94D5010C949A000C949A009C
:100040000C949A000C949A000C949A000C949A00C8
:100050000C949A000C949A000C949A000C949A00B8
:100060000C949A000C949A000C949A000C949A00A8
:100070000C949A000C949A000C949A000C949A0098
:100080000C949A000C949A000C949A00B108B6084B
:10009000D008D508EF0808090D0929090800000053
:1000A000BE922449123EABAAAA2ABECDCCCC4C3E6D
:1000B00000000080BEABAAAAAA3E00000000BF005C
:1000C0000000803F0000000000084178D3BB438758
:1000D000D1133D190E3CC3BD4282AD2B3E68EC826C
:1000E00076BED98FE1A93E4C80EFFFBE01C4FF7FF1
:1000F0003F000000000011241FBECFEFD0E4DEBFA0
:10010000CDBF11E0A0E0B1E0E2ECFDE100E00BBF0B
:1001100002C007900D92A233B107D9F721E0A2E304
:10012000B1E001C01D92A63AB207E1F70E9456095C
:100130000C94DF0E0C940000CF93DF9300D01F923D
:10014000CDB7DEB789837B836A8389818A3031F4B6
:100150008A819B81BC018DE00E949C0080EC90E034
:10016000FC018081882F90E080729927892BB1F360
:1001700086EC90E02981FC01208380E090E00F90E4
:100180000F900F90DF91CF910895CF93DF9300D020
:100190001F92CDB7DEB789836A834B838B81882317
:1001A00071F08A81282F30E081E090E002C0880F52
:1001B000991F2A95E2F7982F8981892B0EC08A8191
:1001C000282F30E081E090E002C0880F991F2A9527
:1001D000E2F7982F9095898189230F900F900F90C7
:1001E000DF91CF910895CF93DF9300D0CDB7DEB7E5
:1001F00089836A838A81282F30E081E090E002C001
:10020000880F991F2A95E2F7982F898189230F90EB
:100210000F90DF91CF910895CF93DF93CDB7DEB7E5
:100220002C970FB6F894DEBF0FBECDBF6D837E83D3
:100230008F83988729873A874B875C878D819E813A
:10024000AF81B88529853A854B855C85BC01CD0198
:100250000E948F0BDC01CB0189839A83AB83BC8323
:1002600089819A81AB81BC81892B8A2B8B2B29F4C4
:1002700089859A85AB85BC8511C089859A85AB85B2
:10028000BC858D839E83AF83B88789819A81AB813A
:10029000BC8189879A87AB87BC87D0CFBC01CD0151
:1002A0002C960FB6F894DEBF0FBECDBFDF91CF9175
:1002B0000895CF93DF9300D000D0CDB7DEB7698328
:1002C0007A838B839C8389819A81AB81BC81809363
:1002D0000E0190930F01A0931001B0931101809132
:1002E0000E0190910F01A0911001B0911101809326
:1002F000330190933401A0933501B093360100008F
:100300000F900F900F900F90DF91CF910895CF93A2
:10031000DF93CDB7DEB781E890E02BE0FC012083CE
:1003200088E890E02DE730E0FC01318320838FE600
:1003300090E022E0FC01208384E890E0FC0111823F
:10034000108280910E0190910F01A0911001B09147
:1003500011018093330190933401A0933501B09340
:1003600036018FE590E02FE530E0F901208120682B
:10037000FC0120830000DF91CF910895CF93DF939C
:10038000CDB7DEB781E890E0FC0110820000DF917C
:10039000CF910895CF93DF93CDB7DEB781E08093FF
:1003A00032010000DF91CF9108951F920F920090CB
:1003B0005F000F92112400905B000F922F933F93E8
:1003C0004F935F936F937F938F939F93AF93BF935D
:1003D000EF93FF93CF93DF93CDB7DEB780913301D7
:1003E00090913401A0913501B09136010197A10996
:1003F000B1098093330190933401A0933501B093F8
:1004000036018091330190913401A0913501B09172
:100410003601892B8A2B8B2B91F40E94CA01809183
:100420000E0190910F01A0911001B09111018093E4
:10043000330190933401A0933501B093360100004D
:10044000DF91CF91FF91EF91BF91AF919F918F91EC
:100450007F916F915F914F913F912F910F900092FB
:100460005B000F9000925F000F901F9018950F9304
:100470001F93CF93DF93CDB7DEB702E210E040E0E9
:1004800064E08FEF0E94C500F8018083000080E2E5
:1004900090E0FC018081809560E00E94F300882359
:1004A00011F081E3D3C080E290E0FC01808180956F
:1004B00061E00E94F300882311F084E3C7C080E26A
:1004C00090E0FC018081809562E00E94F300882327
:1004D00011F087E3BBC080E290E0FC018081809551
:1004E00063E00E94F300882311F08AE2AFC002E2C9
:1004F00010E040E065E08FEF0E94C500F8018083C6
:10050000000080E290E0FC018081809560E00E9424
:10051000F300882311F082E399C080E290E0FC01AF
:100520008081809561E00E94F300882311F085E3CB
:100530008DC080E290E0FC018081809562E00E94A5
:10054000F300882311F088E381C080E290E0FC0191
:100550008081809563E00E94F300882311F080E39E
:1005600075C002E210E040E066E08FEF0E94C50037
:10057000F8018083000080E290E0FC01808180959A
:1005800060E00E94F300882311F083E35FC080E203
:1005900090E0FC018081809561E00E94F300882357
:1005A00011F086E353C080E290E0FC0180818095E9
:1005B00062E00E94F300882311F089E347C080E2E3
:1005C00090E0FC018081809563E00E94F300882325
:1005D00011F083E23BC002E210E040E067E08FEF01
:1005E0000E94C500F8018083000080E290E0FC01D9
:1005F0008081809560E00E94F300882311F081E4FF
:1006000025C080E290E0FC018081809561E00E943D
:10061000F300882311F082E419C080E290E0FC012D
:100620008081809562E00E94F300882311F083E4CA
:100630000DC080E290E0FC018081809563E00E9423
:10064000F300882311F084E401C080E0DF91CF91B2
:100650001F910F910895CF93DF93CDB7DEB70E941E
:100660008F0EDF91CF910895CF93DF93CDB7DEB793
:100670002F970FB6F894DEBF0FBECDBF9F878E8732
:1006800080911201809589838981282F30E08981AA
:10069000882F90E091958195910982239323092ECB
:1006A000000CAA0BBB0BBC01CD010E94CA0CDC01E3
:1006B000CB01BC01CD010E945E0DDC01CB0128E124
:1006C00032E741E35FE3BC01CD010E94270CDC016E
:1006D000CB0120E030E040E85FE3BC01CD010E94A7
:1006E000BB0BDC01CB01BC01CD010E94990CDC01EC
:1006F000CB01898380919201282F30E08981882F56
:1007000090E0AC014250510981E090E002C0880FB6
:10071000991F4A95E2F7822393232981222F30E003
:100720002250310902C0959587952A95E2F79B835F
:100730008A8380919201282F30E08981882F90E070
:10074000AC014150510981E090E002C0880F991F2F
:100750004A95E2F7822393232981222F30E021500A
:10076000310902C0959587952A95E2F79D838C8380
:1007700080919201282F30E08981482F50E081E05C
:1007800090E002C0880F991F4A95E2F782239323D5
:100790002981222F30E002C0959587952A95E2F7AE
:1007A0009F838E8380911501282F30E08981882FC7
:1007B00090E0AC014250510981E090E002C0880F06
:1007C000991F4A95E2F7822393232981222F30E053
:1007D0002250310902C0959587952A95E2F79987AD
:1007E000888780911501282F30E08981882F90E03B
:1007F000AC014150510981E090E002C0880F991F7F
:100800004A95E2F7822393232981222F30E0215059
:10081000310902C0959587952A95E2F79B878A87CB
:1008200080911501282F30E08981482F50E081E028
:1008300090E002C0880F991F4A95E2F78223932324
:100840002981222F30E002C0959587952A95E2F7FD
:100850009D878C878E859F858130910591F08230B0
:10086000910581F1892B09F04EC089E290E0FC01ED
:10087000808188230CF44CC082E090E09F878E87B3
:1008800047C0809112018E3FC1F0809113018034E6
:1008900041F48C819D81892B21F48E819F81892B4C
:1008A00061F0809113018230A9F58A859B85892B9F
:1008B00089F588859985892B69F582E090E09F8785
:1008C0008E8728C0809112018F3EC1F08091130164
:1008D000803441F48A819B81892B21F48C819D8114
:1008E000892B61F0809113018230B1F48C859D8554
:1008F000892B91F48A859B85892B71F481E090E0A6
:100900009F878E8709C082E090E09F878E8705C011
:10091000000003C0000001C000008E859F8581306B
:10092000910519F0029741F011C08091120186954E
:100930008068809312010AC080911201882F90E094
:10094000880F991F81608093120100008E859F851A
:100950002F960FB6F894DEBF0FBECDBFDF91CF91BB
:100960000895CF93DF93CDB7DEB72F970FB6F894E6
:10097000DEBF0FBECDBF9F878E878091120180950D
:1009800089838981282F30E08981882F90E0919593
:100990008195910982239323092E000CAA0BBB0B8E
:1009A000BC01CD010E94CA0CDC01CB01BC01CD0110
:1009B0000E945E0DDC01CB0128E132E741E35FE3F9
:1009C000BC01CD010E94270CDC01CB0120E030E00E
:1009D00040E85FE3BC01CD010E94BB0BDC01CB0111
:1009E000BC01CD010E94990CDC01CB01898380916F
:1009F0009201282F30E08981882F90E0AC0142508D
:100A0000510981E090E002C0880F991F4A95E2F7F2
:100A1000822393232981222F30E02250310902C002
:100A2000959587952A95E2F79B838A838091920119
:100A3000282F30E08981882F90E0AC014150510986
:100A400081E090E002C0880F991F4A95E2F7822367
:100A500093232981222F30E02150310902C095953E
:100A600087952A95E2F79D838C8380919201282FA8
:100A700030E08981482F50E081E090E002C0880F8B
:100A8000991F4A95E2F7822393232981222F30E090
:100A900002C0959587952A95E2F79F838E83809172
:100AA0001501282F30E08981882F90E0AC01425059
:100AB000510981E090E002C0880F991F4A95E2F742
:100AC000822393232981222F30E02250310902C052
:100AD000959587952A95E2F79987888780911501E2
:100AE000282F30E08981882F90E0AC0141505109D6
:100AF00081E090E002C0880F991F4A95E2F78223B7
:100B000093232981222F30E02150310902C095958D
:100B100087952A95E2F79B878A8780911501282F70
:100B200030E08981482F50E081E090E002C0880FDA
:100B3000991F4A95E2F7822393232981222F30E0DF
:100B400002C0959587952A95E2F79D878C878E85BB
:100B50009F858130910591F08230910579F1892B43
:100B600009F04BC089E290E0FC01808188230CF4FD
:100B700049C082E090E09F878E8744C08091130136
:100B8000803889F080911301803409F03DC08A815A
:100B90009B81892BC9F58C819D81892BA9F58E813B
:100BA0009F81892B89F582E090E09F878E8782E381
:100BB00090E0909317018093160126C08091130155
:100BC000813081F080911301823001F5888599850B
:100BD000892BE1F48A859B85892BC1F48C859D85C1
:100BE000892BA1F481E090E09F878E8782E390E0DB
:100BF000909317018093160109C082E090E09F87CF
:100C00008E8705C0000003C0000001C000008E8573
:100C10009F858130910519F0029739F00CC08091C1
:100C20001301880F8093130106C0809113018695EC
:100C30008093130100008E859F852F960FB6F89440
:100C4000DEBF0FBECDBFDF91CF910895CF93DF936D
:100C500000D0CDB7DEB79A83898380911401809349
:100C6000920189819A818230910581F183309105C9
:100C70002CF4009749F0019721F151C08330910580
:100C8000B9F10497D1F14BC083E290E0FC0180817F
:100C9000882F90E081709927892B21F481E090E0E2
:100CA0009A83898383E290E0FC018081882F90E021
:100CB00082709927892BB1F583E090E09A8389832C
:100CC00031C082E090E09A8389832DC083E290E076
:100CD000FC018081882F90E081709927892B19F081
:100CE0001A82198220C082E090E09A8389831BC017
:100CF00084E090E09A83898316C083E290E0FC014F
:100D00008081882F90E082709927892B19F01A82B0
:100D1000198209C084E090E09A83898304C01A8212
:100D2000198201C0000089819A818130910519F0F2
:100D3000039771F026C09091920180911B01891751
:100D4000E8F080919201869580688093920116C0A8
:100D50009091920180911C01981790F090919201CE
:100D600080E889278093920180919201882F90E0FA
:100D7000880F991F81608093920102C0000001C01A
:100D80000000809192018093140189819A810F90D3
:100D90000F90DF91CF910895CF93DF9300D000D0D3
:100DA000CDB7DEB79C838B830E9437028983809105
:100DB000180190911901892B09F067C08B819C81E2
:100DC0008230910511F1833091052CF4009749F0A0
:100DD0000197B1F02FC083309105E9F0049701F13C
:100DE00029C08981813321F481E090E09C838B8349
:100DF00089818233D9F483E090E09C838B8316C091
:100E000082E090E09C838B8316C08981813381F0DE
:100E10001C821B820DC084E090E09C838B830BC0FE
:100E20008981823339F01C821B8204C0000003C018
:100E3000000001C000008B819C818130910519F078
:100E4000039771F021C09091150180911B018917C2
:100E5000C8F080911501869580688093150112C0B5
:100E60009091150180911C01981770F080911501E7
:100E70008A838A81882F90E0880F991F81608093F0
:100E8000150102C0000001C000008B810F900F907F
:100E90000F900F90DF91CF910895CF93DF9300D003
:100EA00000D01F92CDB7DEB79D838C838091130154
:100EB0008038B1F480913701873049F410921A01DB
:100EC0001092370185E290E023E0FC0120838091BD
:100ED0003701882F90E0880F991F81608093370138
:100EE000809113018130B1F480911A01873049F467
:100EF00010921A011092370185E290E023E0FC0184
:100F0000208380911A01882F90E0880F991F8160BB
:100F100080931A0180911801909119010197E9F5C8
:100F20000E942B0381709078992324F401978E6F8F
:100F30009F6F01969A83898380911301883081F491
:100F400089819A81892B61F49091150180911B010F
:100F5000891730F08091150186958068809315017E
:100F6000809113018830C9F489819A810197A9F48D
:100F70009091150180911C01981778F080911501CE
:100F80008B839B8180E889278B838B81882F90E0DE
:100F9000880F991F81608093150185E290E0209170
:100FA0003701222F30E0220F331F22953295307FF8
:100FB0003227207F3227422F20911A01222F30E042
:100FC000220F331F220F331F422B25E230E0F9019D
:100FD0002081242BFC0120838C819D810F900F9018
:100FE0000F900F900F90DF91CF910895CF93DF93E3
:100FF00000D000D0CDB7DEB79C838B8388E0898397
:101000008EEF8A838B819C8181309105B1F0823093
:10101000910519F1892B09F02FC08BE290E0209106
:101020001401FC01208388E290E020E8FC01208389
:1010300081E090E09C838B831FC08BE290E0209145
:101040001501FC01208388E290E021E0FC0120836F
:1010500082E090E09C838B830FC08BE290E0209134
:101060001201FC01208388E290E020911301FC0131
:1010700020831C821B8200008B819C810F900F902B
:101080000F900F90DF91CF910895CF93DF9300D011
:10109000CDB7DEB79A83898389819A8181309105A2
:1010A00089F08230910599F0892B09F01CC089E202
:1010B00090E0FC01808188239CF081E090E09A839D
:1010C00089830EC082E090E09A8389830CC089E214
:1010D00090E0FC01808188232CF41A82198202C0DE
:1010E000000001C0000089819A81019709F016C0B3
:1010F00085E290E023E0FC01208310921A01109217
:1011000037018EEF8093120180E18093130181EF0C
:101110008093140181EF80931501000089819A81E9
:101120000F900F90DF91CF910895CF93DF9300D070
:10113000CDB7DEB79A83898389819A81092E000C05
:10114000AA0BBB0B40E050E027E030E0841B950B7E
:101150002817390708F47AC08A5B9F4FFC010C946A
:10116000B10B81E090E09A8389837CC089E290E0B2
:10117000FC018081882F90E080749927892B21F4CD
:1011800085E090E09A83898389E290E0FC01808188
:1011900088230CF460C087E090E09A8389835BC069
:1011A00083E090E09A8389835DC089E290E0FC014E
:1011B0008081882F90E080749927892B21F081E02D
:1011C00090E09A83898389E290E0FC018081882302
:1011D0000CF443C087E090E09A8389833EC089E2A3
:1011E00090E0FC018081882F90E080749927892B02
:1011F00021F482E090E09A83898389E290E0FC0107
:101200008081882364F187E090E09A83898327C0F6
:1012100086E090E09A83898325C089E290E0FC0112
:101220008081882F90E080749927892B21F084E0B9
:1012300090E09A83898389E290E0FC018081882391
:1012400084F087E090E09A8389830BC01A82198228
:1012500009C0000007C0000005C0000003C0000076
:1012600001C0000089819A818230910531F085307A
:10127000910569F0892B09F012C081E080931A0171
:1012800081E090E0909319018093180108C083E0F9
:1012900080931A011092190110921801000089819F
:1012A0009A810F900F90DF91CF9108950F931F9324
:1012B000CF93DF93CDB7DEB764970FB6F894DEBF58
:1012C0000FBECDBF81E290E020EFFC01208382E2DF
:1012D00090E02FE0FC01208384E290E02CEFFC0101
:1012E000208385E290E023E0FC01208387E290E008
:1012F0002FEFFC01208388E290E0FC0110828AE25B
:1013000090E02FE3FC0120838BE290E020ECFC01D5
:10131000208380E090E00E947C0BDC01CB010E94E6
:10132000930E80E1E1E2F1E0DE01159601900D926D
:101330008A95E1F788E090E09C838B8310923801D6
:101340008091160190911701092E000CAA0BBB0B7E
:101350008093390190933A01A0933B01B0933C01F3
:101360008091390190913A01A0913B01B0913C01EB
:1013700080933D0190933E01A0933F01B0934001C3
:1013800084E393E0909342018093410110924301E2
:101390008091160190911701092E000CAA0BBB0B2E
:1013A0008093440190934501A0934601B093470177
:1013B0008091440190914501A0914601B09147016F
:1013C0008093480190934901A0934A01B0934B0147
:1013D00081EB94E090934D0180934C0110924E016B
:1013E00084E690E0A0E0B0E080934F01909350013C
:1013F000A0935101B093520180914F0190915001FF
:10140000A0915101B09152018093530190935401E6
:10141000A0935501B093560186E296E0909358014F
:10142000809357011092590182E390E0A0E0B0E070
:1014300080935A0190935B01A0935C01B0935D018E
:1014400080915A0190915B01A0915C01B0915D0186
:1014500080935E0190935F01A0936001B09361015E
:1014600086EF97E09093630180936201109264018C
:1014700088E59BE1A0E0B0E0809365019093660170
:10148000A0936701B0936801809165019091660116
:10149000A0916701B09168018093690190936A01FE
:1014A000A0936B01B0936C018DE497E090936E0173
:1014B00080936D0110926F0188E59BE1A0E0B0E0A0
:1014C0008093700190937101A0937201B0937301A6
:1014D0008091700190917101A0917201B09173019E
:1014E0008093740190937501A0937601B093770176
:1014F00085E498E0909379018093780110927A01C5
:1015000084E690E0A0E0B0E080937B0190937C01C2
:10151000A0937D01B0937E0180917B0190917C012D
:10152000A0917D01B0917E0180937F019093800115
:10153000A0938101B09382018CEC96E0909384019A
:10154000809383011092850182E390E0A0E0B0E0F7
:101550008093860190938701A0938801B0938901BD
:101560008091860190918701A0918801B0918901B5
:1015700080938A0190938B01A0938C01B0938D018D
:1015800085E998E090938F0180938E0161E070E08F
:1015900080E090E00E9459010E9487011A8219821E
:1015A0009BC089819A81880F991F9E012F5F3F4FB1
:1015B000820F931F0496FC0180819181FC0125819B
:1015C00036814781508589819A81880F991FBE0194
:1015D0006F5F7F4F860F971F0496FC01808191817A
:1015E000FC0181819281A381B481281739074A07C0
:1015F0005B0709F045C089819A81880F991F9E0178
:101600002F5F3F4F820F931F0496FC0100811181D1
:1016100089819A81880F991F9E012F5F3F4F820F0A
:10162000931F0496FC0180819181FC012185328504
:1016300089819A81880F991FAE014F5F5F4F840F98
:10164000951F0496FC0180819181FC018081082E08
:10165000000C990BF9010995F801808389819A8121
:10166000880F991F9E012F5F3F4F820F931F049693
:10167000FC0180819181FC011582168217821086FF
:1016800089819A81880F991F9E012F5F3F4F820F9A
:10169000931F0496FC012081318189819A81880FF2
:1016A000991FAE014F5F5F4F840F951F0496FC0199
:1016B00080819181FC0185819681A781B085C29648
:1016C000A11DB11DF90185839683A783B087898108
:1016D0009A8101969A83898329813A818B819C81A1
:1016E0002817390708F45DCF000080913201882364
:1016F000E1F31092320152CFFC010FB6F8946091E1
:10170000A2017091A3018091A4019091A5010FBE47
:10171000309721F060837183828393830895A1E2DF
:101720001A2EAA1BBB1BFD010DC0AA1FBB1FEE1F5B
:10173000FF1FA217B307E407F50720F0A21BB30BA6
:10174000E40BF50B661F771F881F991F1A9469F722
:1017500060957095809590959B01AC01BD01CF017E
:101760000895EE0FFF1F0024001C0BBE0790F6919A
:10177000E02D09945058BB27AA270E94D20B0C9445
:101780001C0D0E940E0D38F00E94150D20F039F44A
:101790009F3F19F426F40C940B0D0EF4E095E7FB33
:1017A0000C94050DE92F0E942D0D58F3BA1762070E
:1017B00073078407950720F079F4A6F50C944F0D74
:1017C0000EF4E0950B2EBA2FA02D0B01B90190015C
:1017D0000C01CA01A0011124FF27591B99F0593FA0
:1017E00050F4503E68F11A16F040A22F232F342FE8
:1017F0004427585FF3CF469537952795A795F04036
:101800005395C9F77EF41F16BA0B620B730B840B4A
:10181000BAF09150A1F0FF0FBB1F661F771F881F02
:10182000C2F70EC0BA0F621F731F841F48F487955A
:1018300077956795B795F7959E3F08F0B0CF93954C
:10184000880F08F09927EE0F9795879508950E94C5
:101850003B0C0C941C0D0E94150D58F00E940E0DAF
:1018600040F029F45F3F29F00C94050D51110C94C0
:10187000500D0C940B0D0E942D0D68F39923B1F3BC
:10188000552391F3951B550BBB27AA2762177307A6
:10189000840738F09F5F5F4F220F331F441FAA1F3A
:1018A000A9F335D00E2E3AF0E0E832D091505040F6
:1018B000E695001CCAF72BD0FE2F29D0660F771FA4
:1018C000881FBB1F261737074807AB07B0E809F08A
:1018D000BB0B802DBF01FF2793585F4F3AF09E3F0F
:1018E000510578F00C94050D0C94500D5F3FE4F316
:1018F000983ED4F3869577956795B795F7959F5F52
:10190000C9F7880F911D9695879597F90895E1E09D
:10191000660F771F881FBB1F621773078407BA07FC
:1019200020F0621B730B840BBA0BEE1F88F7E09557
:1019300008950E94350D88F09F5798F0B92F992788
:10194000B751B0F0E1F0660F771F881F991F1AF0AA
:10195000BA95C9F714C0B13091F00E944F0DB1E0B3
:1019600008950C944F0D672F782F8827B85F39F0B2
:10197000B93FCCF3869577956795B395D9F73EF443
:1019800090958095709561957F4F8F4F9F4F0895EB
:10199000E89409C097FB3EF4909580957095619509
:1019A0007F4F8F4F9F4F9923A9F0F92F96E9BB27BF
:1019B0009395F695879577956795B795F111F8CF3B
:1019C000FAF4BB0F11F460FF1BC06F5F7F4F8F4FA6
:1019D0009F4F16C0882311F096E911C0772321F09C
:1019E0009EE8872F762F05C0662371F096E8862F34
:1019F00070E060E02AF09A95660F771F881FDAF78B
:101A0000880F9695879597F9089597F99F6780E8CD
:101A100070E060E008959FEF80EC089500240A9440
:101A20001616170618060906089500240A941216B9
:101A30001306140605060895092E0394000C11F4EC
:101A4000882352F0BB0F40F4BF2B11F460FF04C099
:101A50006F5F7F4F8F4F9F4F089557FD9058440FF2
:101A6000551F59F05F3F71F04795880F97FB991FFD
:101A700061F09F3F79F087950895121613061406BA
:101A8000551FF2CF4695F1DF08C016161706180647
:101A9000991FF1CF86957105610508940895E89422
:101AA000BB2766277727CB0197F9089516F00C948A
:101AB0000F0E0C940B0D68940C94050D0E94350DBF
:101AC000A8F39923C1F3AEF3DF93CF931F930F9342
:101AD000FF92C92FDD2788232AF02197660F771FF1
:101AE000881FDAF720E030E040E85FEB9FE38839B9
:101AF00020F0803E38F021968F770E94BB0BECE9F6
:101B0000F0E004C00E94BB0BE9ECF0E00E941D0E67
:101B10008B01BE01EC01FB2E6F5771097595771F84
:101B2000880B990B0E94CA0C28E132E741E35FE37E
:101B30000E94B50DAF2D9801AE01FF900F911F913E
:101B4000CF91DF910E94D20B0C941C0D0E940E0DC0
:101B500038F00E94150D20F0952311F00C94050D1E
:101B60000C940B0D11240C94500D0E942D0D70F34C
:101B7000959FC1F3950F50E0551F629FF001729F32
:101B8000BB27F00DB11D639FAA27F00DB11DAA1F41
:101B9000649F6627B00DA11D661F829F2227B00D8E
:101BA000A11D621F739FB00DA11D621F839FA00D19
:101BB000611D221F749F3327A00D611D231F849F69
:101BC000600D211D822F762F6A2F11249F575040C0
:101BD0009AF0F1F088234AF0EE0FFF1FBB1F661F3B
:101BE000771F881F91505040A9F79E3F510580F004
:101BF0000C94050D0C94500D5F3FE4F3983ED4F324
:101C0000869577956795B795F795E7959F5FC1F7A7
:101C1000FE2B880F911D9695879597F908959F3F04
:101C200031F0915020F4879577956795B795880F97
:101C3000911D9695879597F90895DF93CF931F93FC
:101C40000F93FF92EF92DF927B018C01689406C0A4
:101C5000DA2EEF010E94B50DFE01E894A5912591C1
:101C6000359145915591A6F3EF010E94D20BFE01EB
:101C70009701A801DA9469F7DF90EF90FF900F9138
:101C80001F91CF91DF9108958F929F92AF92BF9253
:101C9000CF92DF92EF92FF92CF93DF93EC016881B6
:101CA00079818A819B81611571058105910521F4F6
:101CB00064E279ED8BE597E02DE133EF41E050E010
:101CC0000E949E0E49015A019B01AC01A7EAB1E4B2
:101CD0000E94BD0E6B017C01ACEEB4EFA501940136
:101CE0000E94CB0EDC01CB018C0D9D1DAE1DBF1DD6
:101CF000B7FF03C00197A109B04888839983AA83DD
:101D0000BB839F77DF91CF91FF90EF90DF90CF90D3
:101D1000BF90AF909F908F9008950C94440E8DE1EA
:101D200091E00C94440EA0E0B0E080931D019093EC
:101D30001E01A0931F01B09320010895052E97FB6B
:101D40001EF400940E94B50E57FD07D00E948F0B21
:101D500007FC03D04EF40C94B50E50954095309589
:101D600021953F4F4F4F5F4F089590958095709507
:101D700061957F4F8F4F9F4F08950E94D00EA59F72
:101D8000900DB49F900DA49F800D911D1124089576
:101D9000B7FF0C94BD0E0E94BD0E821B930B0895DD
:101DA000A29FB001B39FC001A39F700D811D11249C
:101DB000911DB29F700D811D1124911D0895F894FD
:021DC000FFCF53
:101DC20000000002000000009C0000000000010072
:101DD2000000FE10F1F1581B010001F1F1010000B9
:101DE20000380143014E01590164016F017A0185F6
:021DF2000100EE
:00000001FF
