:100000000C9473000C9492000C9492000C94920047
:100010000C9492000C9492000C9492000C94920018
:100020000C9492000C9492000C9492000C94920008
:100030000C9492000C9486010C9492000C94920003
:100040000C9492000C9492000C9492000C949200E8
:100050000C9492000C9492000C9492000C949200D8
:100060000C9492000C9492000C9492000C949200C8
:100070000C9492000C9492000C9492000C949200B8
:100080000C9492000C9492000C94920008000000D2
:10009000BE922449123EABAAAA2ABECDCCCC4C3E7D
:1000A00000000080BEABAAAAAA3E00000000BF006C
:1000B0000000803F0000000000084178D3BB438768
:1000C000D1133D190E3CC3BD4282AD2B3E68EC827C
:1000D00076BED98FE1A93E4C80EFFFBE01C4FF7F01
:1000E0003F000000000011241FBECFEFD0E4DEBFB0
:1000F000CDBF11E0A0E0B1E0ECE7F7E100E00BBF1D
:1001000002C007900D92A832B107D9F721E0A8E20A
:10011000B1E001C01D92A138B207E1F70E94940638
:100120000C94BC0B0C940000CF93DF9300D01F9273
:10013000CDB7DEB789837B836A8389818A3031F4C6
:100140008A819B81BC018DE00E94940080EC90E04C
:10015000FC018081882F90E080729927892BB1F370
:1001600086EC90E02981FC01208380E090E00F90F4
:100170000F900F90DF91CF910895CF93DF93CDB77C
:10018000DEB72C970FB6F894DEBF0FBECDBF6D83E0
:100190007E838F83988729873A874B875C878D81F9
:1001A0009E81AF81B88529853A854B855C85BC01E8
:1001B000CD010E947508DC01CB0189839A83AB8352
:1001C000BC8389819A81AB81BC81892B8A2B8B2B43
:1001D00029F489859A85AB85BC8511C089859A8566
:1001E000AB85BC858D839E83AF83B88789819A81D7
:1001F000AB81BC8189879A87AB87BC87D0CFBC0194
:10020000CD012C960FB6F894DEBF0FBECDBFDF91A7
:10021000CF910895CF93DF9300D000D0CDB7DEB754
:1002200069837A838B839C8389819A81AB81BC812A
:1002300080930E0190930F01A0931001B0931101D0
:1002400080910E0190910F01A0911001B0911101C8
:100250008093290190932A01A0932B01B0932C0144
:1002600000000F900F900F900F90DF91CF910895A5
:10027000CF93DF93CDB7DEB781E890E02BE0FC01B0
:10028000208388E890E02DE730E0FC013183208373
:100290008FE690E022E0FC01208384E890E0FC01FE
:1002A0001182108280910E0190910F01A091100196
:1002B000B09111018093290190932A01A0932B0101
:1002C000B0932C018FE590E02FE530E0F90120811B
:1002D0002068FC0120830000DF91CF910895CF9327
:1002E000DF93CDB7DEB781E890E0FC01108200001B
:1002F000DF91CF910895CF93DF93CDB7DEB781E043
:10030000809328010000DF91CF9108951F920F92F2
:1003100000905F000F92112400905B000F922F93CA
:100320003F934F935F936F937F938F939F93AF937D
:10033000BF93EF93FF93CF93DF93CDB7DEB7809159
:10034000290190912A01A0912B01B0912C010197D4
:10035000A109B1098093290190932A01A0932B014F
:10036000B0932C018091290190912A01A0912B0139
:10037000B0912C01892B8A2B8B2B91F40E947B014D
:1003800080910E0190910F01A0911001B091110187
:100390008093290190932A01A0932B01B0932C0103
:1003A0000000DF91CF91FF91EF91BF91AF919F91AD
:1003B0008F917F916F915F914F913F912F910F900E
:1003C00000925B000F9000925F000F901F901895B5
:1003D000CF93DF93CDB7DEB70E946C0BDF91CF9147
:1003E0000895CF93DF93CDB7DEB72F970FB6F8946C
:1003F000DEBF0FBECDBF9F878E8780911201809593
:1004000089838981282F30E08981882F90E0919518
:100410008195910982239323092E000CAA0BBB0B13
:10042000BC01CD010E94A709DC01CB01BC01CD01BB
:100430000E943B0ADC01CB0128E132E741E35FE3A4
:10044000BC01CD010E940409DC01CB0120E030E0B9
:1004500040E85FE3BC01CD010E949808DC01CB01BC
:10046000BC01CD010E947609DC01CB01898380911A
:100470007301282F30E08981882F90E0AC01425031
:10048000510981E090E002C0880F991F4A95E2F778
:10049000822393232981222F30E02250310902C088
:1004A000959587952A95E2F79B838A8380917301BE
:1004B000282F30E08981882F90E0AC01415051090C
:1004C00081E090E002C0880F991F4A95E2F78223ED
:1004D00093232981222F30E02150310902C09595C4
:1004E00087952A95E2F79D838C8380917301282F4D
:1004F00030E08981482F50E081E090E002C0880F11
:10050000991F4A95E2F7822393232981222F30E015
:1005100002C0959587952A95E2F79F838E838091F7
:100520001501282F30E08981882F90E0AC014250DE
:10053000510981E090E002C0880F991F4A95E2F7C7
:10054000822393232981222F30E02250310902C0D7
:10055000959587952A95E2F7998788878091150167
:10056000282F30E08981882F90E0AC01415051095B
:1005700081E090E002C0880F991F4A95E2F782233C
:1005800093232981222F30E02150310902C0959513
:1005900087952A95E2F79B878A8780911501282FF6
:1005A00030E08981482F50E081E090E002C0880F60
:1005B000991F4A95E2F7822393232981222F30E065
:1005C00002C0959587952A95E2F79D878C878E8541
:1005D0009F85009719F0019711F140C08091120199
:1005E0008E3FC1F080911301803441F48C819D8154
:1005F000892B21F48E819F81892B61F080911301D9
:10060000823089F58A859B85892B69F5888599854E
:10061000892B49F581E090E09F878E8724C08091E7
:1006200012018F3EC1F080911301803441F48A8120
:100630009B81892B21F48C819D81892B61F0809194
:100640001301823091F48C859D85892B71F48A8504
:100650009B85892B51F41F861E8607C081E090E0A0
:100660009F878E8703C0000001C000008E859F8594
:10067000009719F0019741F011C080911201869501
:100680008068809312010AC080911201882F90E047
:10069000880F991F81608093120100008E859F85CD
:1006A0002F960FB6F894DEBF0FBECDBFDF91CF916E
:1006B0000895CF93DF93CDB7DEB72F970FB6F89499
:1006C000DEBF0FBECDBF9F878E87809112018095C0
:1006D00089838981282F30E08981882F90E0919546
:1006E0008195910982239323092E000CAA0BBB0B41
:1006F000BC01CD010E94A709DC01CB01BC01CD01E9
:100700000E943B0ADC01CB0128E132E741E35FE3D1
:10071000BC01CD010E940409DC01CB0120E030E0E6
:1007200040E85FE3BC01CD010E949808DC01CB01E9
:10073000BC01CD010E947609DC01CB018983809147
:100740007301282F30E08981882F90E0AC0142505E
:10075000510981E090E002C0880F991F4A95E2F7A5
:10076000822393232981222F30E02250310902C0B5
:10077000959587952A95E2F79B838A8380917301EB
:10078000282F30E08981882F90E0AC014150510939
:1007900081E090E002C0880F991F4A95E2F782231A
:1007A00093232981222F30E02150310902C09595F1
:1007B00087952A95E2F79D838C8380917301282F7A
:1007C00030E08981482F50E081E090E002C0880F3E
:1007D000991F4A95E2F7822393232981222F30E043
:1007E00002C0959587952A95E2F79F838E83809125
:1007F0001501282F30E08981882F90E0AC0142500C
:10080000510981E090E002C0880F991F4A95E2F7F4
:10081000822393232981222F30E02250310902C004
:10082000959587952A95E2F7998788878091150194
:10083000282F30E08981882F90E0AC014150510988
:1008400081E090E002C0880F991F4A95E2F7822369
:1008500093232981222F30E02150310902C0959540
:1008600087952A95E2F79B878A8780911501282F23
:1008700030E08981482F50E081E090E002C0880F8D
:10088000991F4A95E2F7822393232981222F30E092
:1008900002C0959587952A95E2F79D878C878E856E
:1008A0009F85009719F00197D1F030C08091130116
:1008B000803881F080911301803469F58A819B81B1
:1008C000892B49F58C819D81892B29F58E819F810A
:1008D000892B09F581E090E09F878E871CC080916D
:1008E0001301813081F0809113018230B1F4888549
:1008F0009985892B91F48A859B85892B71F48C8548
:100900009D85892B51F41F861E8607C081E090E0EB
:100910009F878E8703C0000001C000008E859F85E1
:10092000009719F0019739F00CC080911301880FDE
:100930008093130106C08091130186958093130163
:1009400000008E859F852F960FB6F894DEBF0FBEF0
:10095000CDBFDF91CF910895CF93DF9300D0CDB776
:10096000DEB79A8389838091140180937301898112
:100970009A818230910581F1833091052CF40097A2
:1009800049F0019721F151C083309105B9F10497E5
:10099000D1F14BC083E290E0FC018081882F90E090
:1009A00081709927892B21F481E090E09A838983D3
:1009B00083E290E0FC018081882F90E0827099278B
:1009C000892BB1F583E090E09A83898331C082E07E
:1009D00090E09A8389832DC083E290E0FC018081BE
:1009E000882F90E081709927892B19F01A8219823B
:1009F00020C082E090E09A8389831BC084E090E06D
:100A00009A83898316C083E290E0FC018081882F5D
:100A100090E082709927892B19F01A82198209C0F7
:100A200084E090E09A83898304C01A82198201C00D
:100A3000000089819A818130910519F0039771F046
:100A400026C090917301809116018917E8F080917A
:100A50007301869580688093730116C0909173012D
:100A600080911701981790F09091730180E8892781
:100A70008093730180917301882F90E0880F991FF4
:100A800081608093730102C0000001C0000080916A
:100A900073018093140189819A810F900F90DF91E7
:100AA000CF910895CF93DF9300D000D01F92CDB7A0
:100AB000DEB79D838C83809113018038B1F48091DF
:100AC0002E01873049F410922D0110922E0185E2FB
:100AD00090E023E0FC01208380912E01882F90E09C
:100AE000880F991F816080932E01809113018130BE
:100AF000B1F480912D01873049F410922D011092AC
:100B00002E0185E290E023E0FC01208380912D01FD
:100B1000882F90E0880F991F816080932D010E949B
:100B2000E80181709078992324F401978E6F9F6F6C
:100B300001969A83898380911301883081F4898199
:100B40009A81892B61F49091150180911601891782
:100B500030F0809115018695806880931501809111
:100B600013018830C9F489819A810197A9F4909181
:100B7000150180911701981778F0809115018B83EA
:100B80009B8180E889278B838B81882F90E0880F59
:100B9000991F81608093150185E290E020912E01DC
:100BA000222F30E0220F331F22953295307F3227DB
:100BB000207F3227422F20912D01222F30E0220F5B
:100BC000331F220F331F422B25E230E0F901208131
:100BD000242BFC0120838C819D810F900F900F901E
:100BE0000F900F90DF91CF910895CF93DF9300D0B6
:100BF00000D0CDB7DEB79C838B8388E089838EEFEE
:100C00008A838B819C8181309105B1F0823091057E
:100C100019F1892B09F02FC08BE290E0209114018B
:100C2000FC01208388E290E020E8FC01208381E041
:100C300090E09C838B831FC08BE290E02091150194
:100C4000FC01208388E290E021E0FC01208382E027
:100C500090E09C838B830FC08BE290E02091120187
:100C6000FC01208388E290E020911301FC012083A5
:100C70001C821B8200008B819C810F900F900F9033
:100C80000F90DF91CF910895CF93DF9300D0CDB730
:100C9000DEB79A83898389819A818130910589F0B1
:100CA0008230910599F0892B09F01CC089E290E00F
:100CB000FC01808188239CF081E090E09A83898305
:100CC0000EC082E090E09A8389830CC089E290E0B4
:100CD000FC01808188232CF41A82198202C0000052
:100CE00001C0000089819A81019709F016C085E250
:100CF00090E023E0FC01208310922D0110922E0140
:100D00008EEF8093120180E18093130181EF809335
:100D1000140181EF80931501000089819A810F9061
:100D20000F90DF91CF9108950F931F93CF93DF938F
:100D3000CDB7DEB760970FB6F894DEBF0FBECDBF5C
:100D400084E290E02CEFFC01208385E290E023E038
:100D5000FC01208387E290E02FEFFC01208388E2F2
:100D600090E0FC0110828AE290E02FE7FC012083F2
:100D70008BE290E020E8FC01208380E090E00E947C
:100D80006208DC01CB010E94700B8CE0ECE1F1E029
:100D9000DE01159601900D928A95E1F786E090E0CC
:100DA0009C838B8381E080932F0188E59BE1A0E009
:100DB000B0E08093300190933101A0933201B09361
:100DC00033018091300190913101A0913201B091B5
:100DD00033018093340190933501A0933601B09391
:100DE000370181EF91E0909339018093380181E0E0
:100DF00080933A0188E59BE1A0E0B0E080933B015D
:100E000090933C01A0933D01B0933E0180913B0142
:100E100090913C01A0913D01B0913E0180933F0132
:100E200090934001A0934101B093420189E593E082
:100E300090934401809343011092450184E690E031
:100E4000A0E0B0E08093460190934701A093480151
:100E5000B09349018091460190914701A0914801CA
:100E6000B091490180934A0190934B01A0934C01AA
:100E7000B0934D018CEA94E090934F0180934E0122
:100E80001092500182E390E0A0E0B0E08093510125
:100E900090935201A0935301B0935401809151015A
:100EA00090915201A0915301B0915401809355014A
:100EB00090935601A0935701B093580185EF95E0A8
:100EC00090935A018093590110925B0188E59BE150
:100ED000A0E0B0E080935C0190935D01A0935E017F
:100EE000B0935F0180915C0190915D01A0915E01E2
:100EF000B0915F018093600190936101A0936201C2
:100F0000B093630182E595E090936501809364015D
:100F10001092660188E59BE1A0E0B0E08093670154
:100F200090936801A0936901B0936A018091670171
:100F300090916801A0916901B0916A0180936B0161
:100F400090936C01A0936D01B0936E0184E496E0E0
:100F50009093700180936F0161E070E080E090E019
:100F60000E940A010E9438011A8219829BC089815D
:100F70009A81880F991F9E012F5F3F4F820F931F09
:100F80000496FC0180819181FC0125813681478195
:100F9000508589819A81880F991FBE016F5F7F4FAD
:100FA000860F971F0496FC0180819181FC0181814D
:100FB0009281A381B481281739074A075B0709F09A
:100FC00045C089819A81880F991F9E012F5F3F4FED
:100FD000820F931F0496FC010081118189819A81FF
:100FE000880F991F9E012F5F3F4F820F931F04961A
:100FF000FC0180819181FC012185328589819A8162
:10100000880F991FAE014F5F5F4F840F951F0496A5
:10101000FC0180819181FC018081082E000C990BDC
:10102000F9010995F801808389819A81880F991FB8
:101030009E012F5F3F4F820F931F0496FC0180811A
:101040009181FC01158216821782108689819A810E
:10105000880F991F9E012F5F3F4F820F931F0496A9
:10106000FC012081318189819A81880F991FAE010D
:101070004F5F5F4F840F951F0496FC018081918123
:10108000FC0185819681A781B085C296A11DB11D05
:10109000F90185839683A783B08789819A81019618
:1010A0009A83898329813A818B819C81281739070A
:1010B00008F45DCF0000809128018823E1F31092AD
:1010C000280152CFFC010FB6F89460917D01709118
:1010D0007E0180917F01909180010FBE309721F0B9
:1010E00060837183828393830895A1E21A2EAA1BE1
:1010F000BB1BFD010DC0AA1FBB1FEE1FFF1FA217C8
:10110000B307E407F50720F0A21BB30BE40BF50BC4
:10111000661F771F881F991F1A9469F7609570954D
:10112000809590959B01AC01BD01CF010895505869
:10113000BB27AA270E94AF080C94F9090E94EB096B
:1011400038F00E94F20920F039F49F3F19F426F498
:101150000C94E8090EF4E095E7FB0C94E209E92F02
:101160000E940A0A58F3BA176207730784079507A3
:1011700020F079F4A6F50C942C0A0EF4E0950B2ED1
:10118000BA2FA02D0B01B90190010C01CA01A001D9
:101190001124FF27591B99F0593F50F4503E68F134
:1011A0001A16F040A22F232F342F4427585FF3CF75
:1011B000469537952795A795F0405395C9F77EF446
:1011C0001F16BA0B620B730B840BBAF09150A1F08F
:1011D000FF0FBB1F661F771F881FC2F70EC0BA0F15
:1011E000621F731F841F48F4879577956795B7959D
:1011F000F7959E3F08F0B0CF9395880F08F0992798
:10120000EE0F9795879508950E9418090C94F90997
:101210000E94F20958F00E94EB0940F029F45F3F68
:1012200029F00C94E20951110C942D0A0C94E80950
:101230000E940A0A68F39923B1F3552391F3951B91
:10124000550BBB27AA2762177307840738F09F5FE7
:101250005F4F220F331F441FAA1FA9F335D00E2E54
:101260003AF0E0E832D091505040E695001CCAF7C1
:101270002BD0FE2F29D0660F771F881FBB1F261784
:1012800037074807AB07B0E809F0BB0B802DBF015B
:10129000FF2793585F4F3AF09E3F510578F00C942A
:1012A000E2090C942D0A5F3FE4F3983ED4F386954F
:1012B00077956795B795F7959F5FC9F7880F911D4B
:1012C0009695879597F90895E1E0660F771F881F37
:1012D000BB1F621773078407BA0720F0621B730BEA
:1012E000840BBA0BEE1F88F7E09508950E94120A4E
:1012F00088F09F5798F0B92F9927B751B0F0E1F0D7
:10130000660F771F881F991F1AF0BA95C9F714C086
:10131000B13091F00E942C0AB1E008950C942C0A8F
:10132000672F782F8827B85F39F0B93FCCF38695BF
:1013300077956795B395D9F73EF49095809570951C
:1013400061957F4F8F4F9F4F0895E89409C097FB99
:101350003EF490958095709561957F4F8F4F9F4F8C
:101360009923A9F0F92F96E9BB279395F6958795D0
:1013700077956795B795F111F8CFFAF4BB0F11F493
:1013800060FF1BC06F5F7F4F8F4F9F4F16C088233A
:1013900011F096E911C0772321F09EE8872F762F70
:1013A00005C0662371F096E8862F70E060E02AF0B1
:1013B0009A95660F771F881FDAF7880F969587959D
:1013C00097F9089597F99F6780E870E060E00895C5
:1013D0009FEF80EC089500240A941616170618064D
:1013E0000906089500240A94121613061406050629
:1013F0000895092E0394000C11F4882352F0BB0FBA
:1014000040F4BF2B11F460FF04C06F5F7F4F8F4F1C
:101410009F4F089557FD9058440F551F59F05F3F57
:1014200071F04795880F97FB991F61F09F3F79F006
:1014300087950895121613061406551FF2CF469588
:10144000F1DF08C0161617061806991FF1CF86950A
:101450007105610508940895E894BB2766277727EE
:10146000CB0197F9089516F00C94EC0A0C94E80956
:1014700068940C94E2090E94120AA8F39923C1F31C
:10148000AEF3DF93CF931F930F93FF92C92FDD2706
:1014900088232AF02197660F771F881FDAF720E04C
:1014A00030E040E85FEB9FE3883920F0803E38F081
:1014B00021968F770E949808ECE8F0E004C00E9423
:1014C0009808E9EBF0E00E94FA0A8B01BE01EC01FA
:1014D000FB2E6F5771097595771F880B990B0E942A
:1014E000A70928E132E741E35FE30E94920AAF2DAA
:1014F0009801AE01FF900F911F91CF91DF910E9453
:10150000AF080C94F9090E94EB0938F00E94F20927
:1015100020F0952311F00C94E2090C94E8091124B1
:101520000C942D0A0E940A0A70F3959FC1F3950F3F
:1015300050E0551F629FF001729FBB27F00DB11D57
:10154000639FAA27F00DB11DAA1F649F6627B00DE7
:10155000A11D661F829F2227B00DA11D621F739FD0
:10156000B00DA11D621F839FA00D611D221F749FDE
:101570003327A00D611D231F849F600D211D822F25
:10158000762F6A2F11249F5750409AF0F1F088234C
:101590004AF0EE0FFF1FBB1F661F771F881F915079
:1015A0005040A9F79E3F510580F00C94E2090C943D
:1015B0002D0A5F3FE4F3983ED4F3869577956795BF
:1015C000B795F795E7959F5FC1F7FE2B880F911DA3
:1015D0009695879597F908959F3F31F0915020F4A3
:1015E000879577956795B795880F911D96958795FF
:1015F00097F90895DF93CF931F930F93FF92EF9284
:10160000DF927B018C01689406C0DA2EEF010E9404
:10161000920AFE01E894A591259135914591559145
:10162000A6F3EF010E94AF08FE019701A801DA942A
:1016300069F7DF90EF90FF900F911F91CF91DF91AD
:1016400008958F929F92AF92BF92CF92DF92EF92C6
:10165000FF92CF93DF93EC01688179818A819B812E
:10166000611571058105910521F464E279ED8BE541
:1016700097E02DE133EF41E050E00E947B0B490100
:101680005A019B01AC01A7EAB1E40E949A0B6B01DD
:101690007C01ACEEB4EFA50194010E94A80BDC0123
:1016A000CB018C0D9D1DAE1DBF1DB7FF03C0019763
:1016B000A109B04888839983AA83BB839F77DF9170
:1016C000CF91FF90EF90DF90CF90BF90AF909F9021
:1016D0008F9008950C94210B88E191E00C94210BDC
:1016E000A0E0B0E08093180190931901A0931A0133
:1016F000B0931B010895052E97FB1EF400940E94E1
:10170000920B57FD07D00E94750807FC03D04EF4DA
:101710000C94920B50954095309521953F4F4F4F2B
:101720005F4F089590958095709561957F4F8F4F8D
:101730009F4F08950E94AD0BA59F900DB49F900DF3
:10174000A49F800D911D11240895B7FF0C949A0B4E
:101750000E949A0B821B930B0895A29FB001B39F26
:10176000C001A39F700D811D1124911DB29F700DAA
:0C177000811D1124911D0895F894FFCFF5
:10177C0000000002000000009400000000000100C6
:10178C000000FE10E3F8F1F1010000002F013A0116
:08179C00450150015B016601EB
:00000001FF
