:100000000C9446000C9465000C9465000C946500FB
:100010000C9465000C9465000C9465000C946500CC
:100020000C9465000C9465000C9465000C946500BC
:100030000C9465000C9459010C9465000C946500B7
:100040000C9465000C9465000C9465000C9465009C
:100050000C9465000C9465000C9465000C9465008C
:100060000C9465000C9465000C9465000C9465007C
:100070000C9465000C9465000C9465000C9465006C
:100080000C9465000C9465000C94650011241FBE4F
:10009000CFEFD0E4DEBFCDBF11E0A0E0B1E0EEEDE8
:1000A000FFE000E00BBF02C007900D92A832B1073D
:1000B000D9F721E0A8E2B1E001C01D92A138B20752
:1000C000E1F70E941D050C94ED070C940000CF93FE
:1000D000DF9300D01F92CDB7DEB789837B836A831D
:1000E00089818A3031F48A819B81BC018DE00E9434
:1000F000670080EC90E0FC018081882F90E08072A6
:100100009927892BB1F386EC90E02981FC012083AB
:1001100080E090E00F900F900F90DF91CF910895C5
:10012000CF93DF93CDB7DEB72C970FB6F894DEBF31
:100130000FBECDBF6D837E838F83988729873A87D3
:100140004B875C878D819E81AF81B88529853A85F3
:100150004B855C85BC01CD010E943007DC01CB01E1
:1001600089839A83AB83BC8389819A81AB81BC816B
:10017000892B8A2B8B2B29F489859A85AB85BC85A5
:1001800011C089859A85AB85BC858D839E83AF839D
:10019000B88789819A81AB81BC8189879A87AB872F
:1001A000BC87D0CFBC01CD012C960FB6F894DEBF32
:1001B0000FBECDBFDF91CF910895CF93DF9300D0D5
:1001C00000D0CDB7DEB769837A838B839C83898126
:1001D0009A81AB81BC8180930E0190930F01A09313
:1001E0001001B093110180910E0190910F01A09127
:1001F0001001B09111018093290190932A01A093DD
:100200002B01B0932C0100000F900F900F900F90D6
:10021000DF91CF910895CF93DF93CDB7DEB781E81B
:1002200090E02BE0FC01208388E890E02DE730E0AF
:10023000FC01318320838FE690E022E0FC012083E3
:1002400084E890E0FC011182108280910E0190916F
:100250000F01A0911001B091110180932901909399
:100260002A01A0932B01B0932C018FE590E02FE59C
:1002700030E0F90120812068FC0120830000DF913B
:10028000CF910895CF93DF93CDB7DEB781E890E0AB
:10029000FC0110820000DF91CF910895CF93DF938E
:1002A000CDB7DEB781E0809328010000DF91CF91C8
:1002B00008951F920F9200905F000F9211240090FA
:1002C0005B000F922F933F934F935F936F937F93B6
:1002D0008F939F93AF93BF93EF93FF93CF93DF934E
:1002E000CDB7DEB78091290190912A01A0912B0111
:1002F000B0912C010197A109B10980932901909334
:100300002A01A0932B01B0932C0180912901909197
:100310002A01A0912B01B0912C01892B8A2B8B2BC8
:1003200091F40E944E0180910E0190910F01A091D5
:100330001001B09111018093290190932A01A0939B
:100340002B01B0932C010000DF91CF91FF91EF9131
:10035000BF91AF919F918F917F916F915F914F91DD
:100360003F912F910F9000925B000F9000925F00E1
:100370000F901F901895CF93DF93CDB7DEB70E94F3
:100380009D07DF91CF910895CF93DF9300D01F9207
:10039000CDB7DEB79B838A838091120180958983D4
:1003A0008A819B818130910521F0029709F440C038
:1003B00086C080911301803441F480911601982FFA
:1003C000969589818923882391F480911301823045
:1003D00021F580911701882F90E09C01220F331F97
:1003E0008981882F90E082239323892BB1F082E0CA
:1003F00090E09B838A83809114019091150180374E
:100400009741ACF08091140190911501885E934062
:1004100090931501809314010AC0809112018E3FC0
:1004200009F04AC082E090E09B838A8345C044C0C3
:1004300080911301803471F480911601882F90E02F
:100440009C01220F331F8981882F90E08223932300
:10045000892B91F480911301823021F5809117014D
:10046000882F90E09C01220F331F8981882F90E014
:1004700082239323892BB1F081E090E09B838A83D0
:10048000809114019091150180379741A4F08091DB
:100490001401909115018456910990931501809350
:1004A000140109C0809112018F3E41F481E090E077
:1004B0009B838A8303C002C0000001C000008A81C0
:1004C0009B818130910519F0029741F011C0809114
:1004D000120186958068809312010AC080911201F2
:1004E000882F90E0880F991F81608093120100008F
:1004F0008A819B810F900F900F90DF91CF9108958B
:10050000CF93DF93CDB7DEB727970FB6F894DEBF52
:100510000FBECDBF9F838E83809116018095898306
:100520008091170180958A838091120180958B8339
:100530001C821D820DC099818B81892381709C81D1
:10054000890F8C838981869589838B8186958B839E
:100550008981882319F08B81882369F780911201A2
:1005600080958B830DC09A818B81892381709D81B9
:10057000890F8D838A8186958A838B8186958B836B
:100580008A81882319F08B81882369F78E819F8166
:10059000009719F0019741F14AC08091130180340E
:1005A000C9F48C818130B1F481E090E09F838E8327
:1005B000809114019091150181349F41A4F48091A0
:1005C0001401909115018C599F4F909315018093C0
:1005D000140109C080911301803871F581E090E029
:1005E0009F838E8329C028C0809113018230B9F483
:1005F0008D818130A1F41F821E828091140190911F
:10060000150181349F4194F480911401909115015A
:100610008C599F4F909315018093140107C08091CE
:100620001301813059F41F821E8208C007C081E087
:1006300090E09F838E8303C0000001C000008E8184
:100640009F81009719F0019739F00CC08091130138
:10065000880F8093130106C08091130186958093C3
:10066000130100008E819F8127960FB6F894DEBF9C
:100670000FBECDBFDF91CF910895CF93DF9300D010
:100680001F92CDB7DEB79B838A838A819B8182309C
:10069000910581F1833091052CF4009749F0019781
:1006A00021F14CC08330910591F10497A9F146C026
:1006B00083E290E0FC018081882F90E0817099278F
:1006C000892B21F481E090E09B838A8383E290E090
:1006D000FC018081882F90E082709927892B49F551
:1006E00083E090E09B838A8324C082E090E09B8338
:1006F0008A8324C083E290E0FC018081882F90E00F
:1007000081709927892BB9F01B821A8214C084E06A
:1007100090E09B838A8312C083E290E0FC01808199
:10072000882F90E082709927892B39F01B821A82DA
:1007300004C0000003C0000001C000008A819B814A
:100740008130910519F0039761F021C08091160165
:10075000823FD8F4809116018695806880931601B7
:1007600014C080911601813F90F080911601898319
:10077000998180E8892789838981882F90E0880F73
:10078000991F81608093160102C0000001C0000023
:100790008A819B810F900F900F90DF91CF910895E8
:1007A000CF93DF9300D0CDB7DEB79A838983898159
:1007B0009A818130910589F08230910599F0892BD9
:1007C00009F01CC089E290E0FC01808188239CF044
:1007D00081E090E09A8389830EC082E090E09A8362
:1007E00089830CC089E290E0FC01808188232CF48D
:1007F0001A82198202C0000001C0000089819A811A
:10080000019709F01CC085E290E023E0FC01208301
:1008100010922D0110922E018EEF8093120180E133
:100820008093130181EF8093160181EF809317016C
:1008300088E59BE190931501809314010000898164
:100840009A810F900F90DF91CF910895CF93DF930E
:1008500000D000D01F92CDB7DEB79D838C838C81F2
:100860009D81892B09F005C081E090E09D838C83F8
:1008700000008C819D81019709F03AC00E94BB0164
:1008800081709078992324F401978E6F9F6F019661
:100890009A83898380911301883071F489819A81C8
:1008A000892B51F480911701823F30F48091170118
:1008B0008695806880931701809113018830B9F480
:1008C00089819A81019799F480911701813F78F08D
:1008D000809117018B839B8180E889278B838B8193
:1008E000882F90E0880F991F816080931701000086
:1008F000809113018038B1F480912E01873049F442
:1009000010922D0110922E0185E290E023E0FC016F
:10091000208380912E01882F90E0880F991F81609D
:1009200080932E01809113018130B1F480912D01CB
:10093000873049F410922D0110922E0185E290E04B
:1009400023E0FC01208380912D01882F90E0880F07
:10095000991F816080932D0185E290E020912E0106
:10096000222F30E0220F331F22953295307F32271D
:10097000207F3227422F20912D01222F30E0220F9D
:10098000331F220F331F422B25E230E0F901208173
:10099000242BFC0120838C819D810F900F900F9060
:1009A0000F900F90DF91CF910895CF93DF9300D0F8
:1009B000CDB7DEB79A83898389819A818130910589
:1009C000B1F08230910519F1892B09F02FC08BE22B
:1009D00090E020911601FC01208388E290E020E85D
:1009E000FC01208381E090E09A8389831FC08BE221
:1009F00090E020911701FC01208388E290E021E043
:100A0000FC01208382E090E09A8389830FC08BE20F
:100A100090E020911201FC01208388E290E0209177
:100A20001301FC0120831A821982000089819A81B6
:100A30000F900F90DF91CF9108950F931F93CF9355
:100A4000DF93CDB7DEB760970FB6F894DEBF0FBE69
:100A5000CDBF84E290E02CEFFC01208385E290E0A2
:100A600023E0FC01208387E290E02FEFFC0120834C
:100A700088E290E0FC0110828AE290E02FE7FC011E
:100A800020838BE290E020E8FC01208380E090E06E
:100A90000E941D07DC01CB010E94A1078CE0ECE164
:100AA000F1E0DE01159601900D928A95E1F786E05E
:100AB00090E09C838B8382E080932F0180911401CE
:100AC00090911501092E000CAA0BBB0B80933001ED
:100AD00090933101A0933201B093330180913001A2
:100AE00090913101A0913201B09133018093340192
:100AF00090933501A0933601B093370184EC91E0D7
:100B0000909339018093380181E080933A0180917C
:100B1000140190911501092E000CAA0BBB0B8093B8
:100B20003B0190933C01A0933D01B0933E01809125
:100B30003B0190913C01A0913D01B0913E01809319
:100B40003F0190934001A0934101B093420180E89E
:100B500092E090934401809343011092450182E317
:100B600090E0A0E0B0E08093460190934701A0930D
:100B70004801B09349018091460190914701A091AD
:100B80004801B091490180934A0190934B01A09391
:100B90004C01B0934D0185ED94E090934F0180930B
:100BA0004E011092500184E690E0A0E0B0E0809306
:100BB000510190935201A0935301B093540180913D
:100BC000510190915201A0915301B0915401809331
:100BD000550190935601A0935701B09358018DE3AE
:100BE00093E090935A018093590110925B01809198
:100BF000140190911501092E000CAA0BBB0B8093D8
:100C00005C0190935D01A0935E01B0935F018091C0
:100C10005C0190915D01A0915E01B0915F018093B4
:100C2000600190936101A0936201B093630186E239
:100C300094E0909365018093640110926601809125
:100C4000140190911501092E000CAA0BBB0B809387
:100C5000670190936801A0936901B0936A01809144
:100C60005C0190915D01A0915E01B0915F01809364
:100C70006B0190936C01A0936D01B0936E0180EDB8
:100C800093E09093700180936F0161E070E080E0E9
:100C900090E00E94DD000E940B011A821982BDC003
:100CA00089819A81880F991F9E012F5F3F4F820F84
:100CB000931F0496FC0180819181FC01258136817E
:100CC0004781508589819A81880F991FBE016F5F86
:100CD0007F4F860F971F0496FC0180819181FC0154
:100CE00081819281A381B481281739074A075B0764
:100CF00009F067C089819A81880F991F9E012F5F33
:100D00003F4F820F931F0496FC010081118189815E
:100D10009A81880F991F9E012F5F3F4F820F931F6B
:100D20000496FC0180819181FC01218532858981B5
:100D30009A81880F991FAE014F5F5F4F840F951FF7
:100D40000496FC0180819181FC018081082E000CB9
:100D5000990BF9010995F801808389819A81880F9F
:100D6000991F9E012F5F3F4F820F931F0496FC0136
:100D700080819181FC0115821682178210868981FB
:100D80009A81892B21F089819A810197D1F48981F7
:100D90009A81880F991F9E012F5F3F4F820F931FEB
:100DA0000496FC01208131818091140190911501FC
:100DB000092E000CAA0BBB0BF90181839283A3833C
:100DC000B48389819A81880F991F9E012F5F3F4FBD
:100DD000820F931F0496FC012081318189819A81C1
:100DE000880F991FAE014F5F5F4F840F951F0496C8
:100DF000FC0180819181FC0185819681A781B0856C
:100E0000C296A11DB11DF90185839683A783B08782
:100E100089819A8101969A83898329813A818B817C
:100E20009C812817390708F43BCF000080912801E6
:100E30008823E1F31092280130CFFC010FB6F8941B
:100E400060917D0170917E0180917F019091800180
:100E50000FBE309721F0608371838283938308955E
:100E6000A1E21A2EAA1BBB1BFD010DC0AA1FBB1FAE
:100E7000EE1FFF1FA217B307E407F50720F0A21B20
:100E8000B30BE40BF50B661F771F881F991F1A948D
:100E900069F760957095809590959B01AC01BD01B7
:100EA000CF0108958F929F92AF92BF92CF92DF921F
:100EB000EF92FF92CF93DF93EC01688179818A8171
:100EC0009B81611571058105910521F464E279ED3D
:100ED0008BE597E02DE133EF41E050E00E94AC0755
:100EE00049015A019B01AC01A7EAB1E40E94CB077A
:100EF0006B017C01ACEEB4EFA50194010E94D9070F
:100F0000DC01CB018C0D9D1DAE1DBF1DB7FF03C0C5
:100F10000197A109B04888839983AA83BB839F77EF
:100F2000DF91CF91FF90EF90DF90CF90BF90AF9087
:100F30009F908F9008950C94520788E191E00C9453
:100F40005207A0E0B0E08093180190931901A0939C
:100F50001A01B0931B010895052E97FB1EF400940F
:100F60000E94C30757FD07D00E94300707FC03D03B
:100F70004EF40C94C30750954095309521953F4F02
:100F80004F4F5F4F089590958095709561957F4F75
:100F90008F4F9F4F08950E94DE07A59F900DB49F2D
:100FA000900DA49F800D911D11240895B7FF0C94FE
:100FB000CB070E94CB07821B930B0895A29FB00121
:100FC000B39FC001A39F700D811D1124911DB29F7D
:0E0FD000700D811D1124911D0895F894FFCF1E
:100FDE000000000200000000670000000000010099
:100FEE000000FE10581BF1F1010000002F013A0124
:080FFE00450150015B01660191
:00000001FF
