:100000000C9446000C9465000C9465000C946500FB
:100010000C9465000C9465000C9465000C946500CC
:100020000C9465000C9465000C9465000C946500BC
:100030000C9465000C9459010C9465000C946500B7
:100040000C9465000C9465000C9465000C9465009C
:100050000C9465000C9465000C9465000C9465008C
:100060000C9465000C9465000C9465000C9465007C
:100070000C9465000C9465000C9465000C9465006C
:100080000C9465000C9465000C94650011241FBE4F
:10009000CFEFD0E4DEBFCDBF11E0A0E0B1E0ECEFE8
:1000A000FBE000E00BBF02C007900D92A632B10743
:1000B000D9F721E0A6E2B1E001C01D92A237B20754
:1000C000E1F70E9457030C94FC050C940000CF93B9
:1000D000DF9300D01F92CDB7DEB789837B836A831D
:1000E00089818A3031F48A819B81BC018DE00E9434
:1000F000670080EC90E0FC018081882F90E08072A6
:100100009927892BB1F386EC90E02981FC012083AB
:1001100080E090E00F900F900F90DF91CF910895C5
:10012000CF93DF93CDB7DEB72C970FB6F894DEBF31
:100130000FBECDBF6D837E838F83988729873A87D3
:100140004B875C878D819E81AF81B88529853A85F3
:100150004B855C85BC01CD010E943F05DC01CB01D4
:1001600089839A83AB83BC8389819A81AB81BC816B
:10017000892B8A2B8B2B29F489859A85AB85BC85A5
:1001800011C089859A85AB85BC858D839E83AF839D
:10019000B88789819A81AB81BC8189879A87AB872F
:1001A000BC87D0CFBC01CD012C960FB6F894DEBF32
:1001B0000FBECDBFDF91CF910895CF93DF9300D0D5
:1001C00000D0CDB7DEB769837A838B839C83898126
:1001D0009A81AB81BC8180930E0190930F01A09313
:1001E0001001B093110180910E0190910F01A09127
:1001F0001001B09111018093270190932801A093E1
:100200002901B0932A0100000F900F900F900F90DA
:10021000DF91CF910895CF93DF93CDB7DEB781E81B
:1002200090E02BE0FC01208388E890E02DE730E0AF
:10023000FC01318320838FE690E022E0FC012083E3
:1002400084E890E0FC011182108280910E0190916F
:100250000F01A0911001B09111018093270190939B
:100260002801A0932901B0932A018FE590E02FE5A2
:1002700030E0F90120812068FC0120830000DF913B
:10028000CF910895CF93DF93CDB7DEB781E890E0AB
:10029000FC0110820000DF91CF910895CF93DF938E
:1002A000CDB7DEB781E0809326010000DF91CF91CA
:1002B00008951F920F9200905F000F9211240090FA
:1002C0005B000F922F933F934F935F936F937F93B6
:1002D0008F939F93AF93BF93EF93FF93CF93DF934E
:1002E000CDB7DEB78091270190912801A091290117
:1002F000B0912A010197A109B10980932701909338
:100300002801A0932901B0932A018091270190919F
:100310002801A0912901B0912A01892B8A2B8B2BCE
:1003200091F40E944E0180910E0190910F01A091D5
:100330001001B09111018093270190932801A0939F
:100340002901B0932A010000DF91CF91FF91EF9135
:10035000BF91AF919F918F917F916F915F914F91DD
:100360003F912F910F9000925B000F9000925F00E1
:100370000F901F901895CF93DF9300D0CDB7DEB7C5
:100380009A83898389819A81009719F0019751F0A6
:1003900010C0809112018E3F89F481E090E09A8331
:1003A00089830CC0809112018F3E51F41A82198208
:1003B00007C081E090E09A83898303C0000001C0F8
:1003C000000089819A81009719F0019741F011C0CE
:1003D0008091120186958068809312010AC08091F5
:1003E0001201882F90E0880F991F8160809312017D
:1003F000000089819A810F900F90DF91CF9108952D
:10040000CF93DF9300D0CDB7DEB79A8389838981FC
:100410009A81009719F0019751F010C08091130153
:10042000803889F481E090E09A8389830CC08091C0
:100430001301813051F41A82198207C081E090E0E3
:100440009A83898303C0000001C0000089819A81DA
:10045000009719F0019739F00CC080911301880FB3
:100460008093130106C08091130186958093130138
:10047000000089819A810F900F90DF91CF910895AC
:10048000CF93DF9300D01F92CDB7DEB79B838A83D3
:100490008A819B818230910581F1833091052CF412
:1004A000009749F0019721F14CC08330910591F1FB
:1004B0000497A9F146C083E290E0FC018081882F77
:1004C00090E081709927892B21F481E090E09B8353
:1004D0008A8383E290E0FC018081882F90E0827023
:1004E0009927892B49F583E090E09B838A8324C078
:1004F00082E090E09B838A8324C083E290E0FC0149
:100500008081882F90E081709927892BB9F01B8218
:100510001A8214C084E090E09B838A8312C083E235
:1005200090E0FC018081882F90E082709927892BD0
:1005300039F01B821A8204C0000003C0000001C011
:1005400000008A819B818130910519F0039761F049
:1005500021C080911601823FD8F4809116018695C2
:1005600080688093160114C080911601813F90F03D
:10057000809116018983998180E8892789838981FF
:10058000882F90E0880F991F81608093160102C028
:10059000000001C000008A819B810F900F900F9096
:1005A000DF91CF910895CF93DF9300D0CDB7DEB721
:1005B0009A83898389819A818130910589F082307B
:1005C000910599F0892B09F01CC089E290E0FC01AB
:1005D000808188239CF081E090E09A8389830EC01B
:1005E00082E090E09A8389830CC089E290E0FC016C
:1005F000808188232CF41A82198202C0000001C075
:10060000000089819A81019709F016C085E290E087
:1006100023E0FC01208310922B0110922C018EEF1D
:100620008093120180E18093130181EF8093160182
:1006300081EF80931701000089819A810F900F90BC
:10064000DF91CF910895CF93DF9300D0CDB7DEB780
:100650009A83898389819A81009719F0029789F09A
:100660001FC08BE290E020911601FC01208388E2FC
:1006700090E020E8FC01208382E090E09A83898367
:100680000FC08BE290E020911201FC01208388E2F0
:1006900090E020911301FC0120831A82198200004E
:1006A00089819A810F900F90DF91CF9108950F93D8
:1006B0001F93CF93DF93CDB7DEB72E970FB6F89485
:1006C000DEBF0FBECDBF84E290E02CEFFC012083A3
:1006D00085E290E023E0FC01208387E290E02FEFA9
:1006E000FC01208388E290E0FC0110828AE290E025
:1006F0002FE7FC0120838BE290E020E8FC012083BF
:1007000080E090E00E942C05DC01CB010E94B00546
:100710008AE0ECE1F1E0DE01159601900D928A95F8
:10072000E1F785E090E09C838B8381E080932D014D
:100730008091140190911501092E000CAA0BBB0B9E
:1007400080932E0190932F01A0933001B09331013B
:1007500080912E0190912F01A0913001B091310133
:100760008093320190933301A0933401B09335010B
:100770008BEB91E0909337018093360181E0809379
:1007800038018091140190911501092E000CAA0BDB
:10079000BB0B8093390190933A01A0933B01B09336
:1007A0003C018091390190913A01A0913B01B091B7
:1007B0003C0180933D0190933E01A0933F01B09393
:1007C000400180E092E0909342018093410182E0F9
:1007D0008093430182E390E0A0E0B0E08093440185
:1007E00090934501A0934601B09347018091440145
:1007F00090914501A0914601B09147018093480135
:1008000090934901A0934A01B0934B0183E293E096
:1008100090934D0180934C0110924E0184E690E03C
:10082000A0E0B0E080934F0190935001A09351015C
:10083000B093520180914F0190915001A0915101CC
:10084000B09152018093530190935401A0935501AC
:10085000B093560180E492E0909358018093570141
:100860001092590188E59BE1A0E0B0E080935A0125
:1008700090935B01A0935C01B0935D0180915A015C
:1008800090915B01A0915C01B0915D0180935E014C
:1008900090935F01A0936001B093610183ED92E0BA
:1008A000909363018093620161E070E080E090E0EA
:1008B0000E94DD000E940B011A821982BDC089814D
:1008C0009A81880F991F9E012F5F3F4F820F931FC0
:1008D0000496FC0180819181FC012581368147814C
:1008E000508589819A81880F991FBE016F5F7F4F64
:1008F000860F971F0496FC0180819181FC01818104
:100900009281A381B481281739074A075B0709F050
:1009100067C089819A81880F991F9E012F5F3F4F81
:10092000820F931F0496FC010081118189819A81B5
:10093000880F991F9E012F5F3F4F820F931F0496D0
:10094000FC0180819181FC012185328589819A8118
:10095000880F991FAE014F5F5F4F840F951F04965C
:10096000FC0180819181FC018081082E000C990B93
:10097000F9010995F801808389819A81880F991F6F
:100980009E012F5F3F4F820F931F0496FC018081D1
:100990009181FC01158216821782108689819A81C5
:1009A000892B21F089819A810197D1F489819A81DB
:1009B000880F991F9E012F5F3F4F820F931F049650
:1009C000FC01208131818091140190911501092E43
:1009D000000CAA0BBB0BF90181839283A383B48320
:1009E00089819A81880F991F9E012F5F3F4F820F47
:1009F000931F0496FC012081318189819A81880F9F
:100A0000991FAE014F5F5F4F840F951F0496FC0145
:100A100080819181FC0185819681A781B085C296F4
:100A2000A11DB11DF90185839683A783B0878981B4
:100A30009A8101969A83898329813A818B819C814D
:100A40002817390708F43BCF00008091260188233E
:100A5000E1F31092260130CFFC010FB6F8946091BB
:100A60006E0170916F0180917001909171010FBEC4
:100A7000309721F060837183828393830895A1E28C
:100A80001A2EAA1BBB1BFD010DC0AA1FBB1FEE1F08
:100A9000FF1FA217B307E407F50720F0A21BB30B53
:100AA000E40BF50B661F771F881F991F1A9469F7CF
:100AB00060957095809590959B01AC01BD01CF012B
:100AC00008958F929F92AF92BF92CF92DF92EF9252
:100AD000FF92CF93DF93EC01688179818A819B81BA
:100AE000611571058105910521F464E279ED8BE5CD
:100AF00097E02DE133EF41E050E00E94BB05490152
:100B00005A019B01AC01A7EAB1E40E94DA056B012E
:100B10007C01ACEEB4EFA50194010E94E805DC0174
:100B2000CB018C0D9D1DAE1DBF1DB7FF03C00197EE
:100B3000A109B04888839983AA83BB839F77DF91FB
:100B4000CF91FF90EF90DF90CF90BF90AF909F90AC
:100B50008F9008950C94610588E191E00C946105F3
:100B6000A0E0B0E08093180190931901A0931A01BE
:100B7000B0931B010895052E97FB1EF400940E946C
:100B8000D20557FD07D00E943F0507FC03D04EF465
:100B90000C94D20550954095309521953F4F4F4F7D
:100BA0005F4F089590958095709561957F4F8F4F19
:100BB0009F4F08950E94ED05A59F900DB49F900D45
:100BC000A49F800D911D11240895B7FF0C94DA05A0
:100BD0000E94DA05821B930B0895A29FB001B39F78
:100BE000C001A39F700D811D1124911DB29F700D36
:0C0BF000811D1124911D0895F894FFCF81
:100BFC00000000020000000067000000000001007F
:100C0C000000FE10581BF1F1010000002D0138010D
:060C1C0043014E015901E5
:00000001FF
